:1000000014C1000042C1000040C100003EC1000018
:100010003CC100003AC1000038C1000036C10000F8
:1000200034C1000032C1000030C100002EC1000008
:100030002CC100002AC1000028C1000026C1000018
:1000400024C1000022C1000020C100001EC1000028
:100050001CC100001AC1000018C10000F5C4000056
:1000600014C1000099C300006EC300000EC100005F
:100070000CC100000AC1000008C1000006C1000058
:1000800004C1000002C1000000C10000FEC0000069
:10009000FCC00000FAC00000F8C00000F6C000007C
:1000A000F4C00000F2C00000F0C00000EEC000008C
:1000B000ECC00000EAC00000E8C00000E6C000009C
:1000C000E4C00000E2C00000E0C00000DEC00000AC
:1000D000DCC00000DAC00000D8C00000D6C00000BC
:1000E000D4C00000B502B802A702AB02B102EF0211
:1000F000BC02C002C602CA02CE02D402D802DC028E
:10010000EF02E202E602EA020000210024002700DA
:100110002A002D0030003300010100000401070116
:100120000A0100002200250028002B002E003100CB
:10013000340002010000050108010B01000020004D
:100140002300260029002C002F00320000010000AF
:10015000030106010901050505050705080808084A
:10016000020202020A0A080804040404010101014F
:10017000010101010303030303030303040707074A
:100180000C0C0C0C0C0C0C0C0202020206060606EF
:10019000060606060B0B0B0B0B0B0B0B01021020BC
:1001A00020080810204010204080020102010804AD
:1001B0000201010204081020408080402010080441
:1001C000020180040201804020100804020108049A
:1001D00002010102040810204080010204081020DE
:1001E000408000000A0B02090C0D0E0807030401F1
:1001F00000000000000000000000000000000000FF
:1002000000000000000000000000000000001211CB
:1002100010000000000000000000000000000000CE
:100220000000000000000000380C11241FBECFEFBA
:10023000D1E2DEBFCDBF00E00CBF24E0ACE1B3E013
:1002400001C01D92AB3AB207E1F713E0A0E0B2E0C3
:10025000EEECFAE100E00BBF02C007900D92AC316A
:10026000B107D9F711E0C5E1D1E000E006C0219760
:100270000109802FFE010E94590DC431D10780E091
:100280000807A9F7DAD70C94650DBACE96E0899FD6
:10029000D0011124AC5DBB4F90967C936E935F9719
:1002A00091E091969C93919790919004E0919104A4
:1002B000F0919204992339F0309751F0811108C0E0
:1002C0008091400404C0309719F05C968C91199489
:1002D0000895CF92DF92EF92FF920F931F93CF93E7
:1002E000DF936C017A018B01C0E0D0E0CE15DF0511
:1002F00089F0D8016D918D01D601ED91FC910190AD
:10030000F081E02DC6011995892B11F47E0102C000
:100310002196ECCFC701DF91CF911F910F91FF90F4
:10032000EF90DF90CF900895FC01538D448D252FE1
:1003300030E0842F90E0821B930B541710F0CF967F
:10034000089501970895FC01918D828D981761F0B1
:10035000828DDF01A80FB11D5D968C91928D9F5FFC
:100360009F73928F90E008958FEF9FEF0895FC01A7
:10037000918D828D981731F0828DE80FF11D858D5A
:1003800090E008958FEF9FEF0895FC01918D228DED
:10039000892F90E0805C9F4F821B91098F73992772
:1003A00008958DE293E0F1DF21E0892B09F420E04C
:1003B000822F0895FC01848DDF01A80FB11DA35A7F
:1003C000BF4F2C91848D90E001968F739927848F75
:1003D000A689B7892C93A089B1898C9180648C936C
:1003E000938D848D981306C00288F389E02D808157
:1003F0008F7D80830895EF92FF920F931F93CF9389
:10040000DF93EC0181E0888F9B8D8C8D981305C064
:10041000E889F989808185FD23C0F62E0B8D10E0D7
:100420000F5F1F4F0F731127E02E8C8DE8120BC04A
:100430000FB607FCFACFE889F989808185FFF5CFEF
:10044000CE01B8DFF2CF8B8DFE01E80FF11DE35A2C
:10045000FF4FF0820B8FEA89FB898081806207C0A1
:10046000EE89FF896083E889F989808180648083CF
:1004700081E090E0DF91CF911F910F91FF90EF907D
:100480000895CF93DF93EC01888D8823C1F0EA892A
:10049000FB89808185FD05C0A889B9898C9186FD7D
:1004A0000EC00FB607FCF5CF808185FFF2CFA8897B
:1004B000B9898C9185FFEDCFCE017CDFE8CFDF914C
:1004C000CF91089580E090E0892B19F06ADF8111C7
:1004D00025C080E090E0892B41F080E090E0892BFE
:1004E00021F00E94000081111CC080E090E0892B67
:1004F00041F080E090E0892B21F00E940000811102
:1005000013C080E090E0892BA1F080E090E0892B7F
:1005100081F00E94000081110AC008950E9400002D
:10052000D8CF0E940000E1CF0E940000EACF0C94D7
:100530000000089590E0FC013197E231F10508F0E8
:100540004EC08827EE58FF4F8F4F0C94590D809165
:1005500080008F7703C0809180008F7D8093800022
:10056000089580918000877FF9CF84B58F7702C08E
:1005700084B58F7D84BD08958091B0008F7703C0CE
:100580008091B0008F7D8093B0000895809190009D
:100590008F7707C0809190008F7D03C0809190007D
:1005A000877F8093900008958091A0008F7707C087
:1005B0008091A0008F7D03C08091A000877F8093F1
:1005C000A0000895809120018F7707C080912001BD
:1005D0008F7D03C080912001877F80932001089543
:1005E000CF93DF93282F30E0F901EE51FE4F849135
:1005F000F901E456FE4FD491F901EA5AFE4FC49135
:10060000CC2389F0811196DFEC2FF0E0EE0FFF1F75
:10061000E45CFE4FA591B491EC91ED2381E090E074
:1006200021F480E002C080E090E0DF91CF91089556
:10063000862FD6CF3FB7F894809121039091220363
:10064000A0912303B091240326B5A89B05C02F3F9A
:1006500019F00196A11DB11D3FBFBA2FA92F982FE8
:100660008827820F911DA11DB11DBC01CD0142E063
:10067000660F771F881F991F4A95D1F7089508952F
:1006800080E090E008950E94610D6115710579F098
:10069000FB0101900020E9F73197AF01461B570B92
:1006A000DC01ED91FC910280F381E02D199480E052
:1006B00090E008954F925F926F927F92EF92FF9237
:1006C0000F931F93CF93DF93CDB7DEB7A1970FB6EC
:1006D000F894DEBF0FBECDBF7C01FA01CB0119A299
:1006E000223008F42AE08E010F5D1F4F422E512C5C
:1006F000612C712CBF01A30192010E94370DF901F9
:10070000CA01015011096A3014F4605D01C0695CCE
:10071000D8016C93232B242B252B61F7B801C7013B
:10072000B4DFA1960FB6F894DEBF0FBECDBFDF9148
:10073000CF911F910F91FF90EF907F906F905F90FE
:100740004F900895A2CF1F920F920FB60F921124CF
:100750000BB60F922F933F934F935F936F937F93BB
:100760008F939F93AF93BF93EF93FF938DE293E0AB
:1007700021DEFF91EF91BF91AF919F918F917F917A
:100780006F915F914F913F912F910F900BBE0F9002
:100790000FBE0F901F9018951F920F920FB60F92D9
:1007A00011240BB60F922F938F939F93EF93FF9388
:1007B000E0913D03F0913E038081E0914303F0918D
:1007C000440382FD12C09081809146038F5F8F7336
:1007D00020914703821751F0E0914603F0E0E35D7A
:1007E000FC4F958F8093460301C08081FF91EF916C
:1007F0009F918F912F910F900BBE0F900FBE0F9076
:100800001F9018951F93CF93DF93282F30E0F901A5
:10081000EE51FE4F8491F901E456FE4FD491F90157
:10082000EA5AFE4FC491CC23C1F0162F811182DE0B
:10083000EC2FF0E0EE0FFF1FEE5DFE4FA591B4919F
:100840008FB7F894111105C09C91ED2FE095E92325
:1008500002C0EC91ED2BEC938FBFDF91CF911F91F4
:100860000895862F642FCECFCF93DF93EC0160E005
:100870008E81C8DF61E08E81C5DF60E08E81C2DFDE
:100880008BE891E00197F1F7DF91CF910895CF9335
:10089000DF9390E0FC01E456FE4F2491FC01EA5AFC
:1008A000FE4F8491882361F190E0880F991FFC012D
:1008B000E85FFE4FC591D491FC01EE5DFE4FA5911E
:1008C000B491611109C09FB7F89488812095822363
:1008D0008883EC912E230BC0623061F49FB7F894AB
:1008E0003881822F809583238883EC912E2B2C9343
:1008F0009FBF06C08FB7F894E8812E2B28838FBF47
:10090000DF91CF910895862F642FC1CF8F929F9250
:10091000AF92BF92CF92DF92EF92FF926B017C0178
:1009200089DE4B015C01C114D104E104F104E9F05A
:1009300081DEDC01CB0188199909AA09BB09883E2F
:100940009340A105B10578F321E0C21AD108E1086E
:10095000F10888EE880E83E0981EA11CB11CC1141A
:10096000D104E104F10421F7DECFFF90EF90DF9096
:10097000CF90BF90AF909F908F9008952FB7F8942D
:1009800060911D0370911E0380911F0390912003BD
:100990002FBF08950F931F93CF93DF93C82FD62FA8
:1009A00086E0C89FF0011124EC5DFB4F11A2878DFA
:1009B00090A181309105E1F01CF4892B49F03FC0F2
:1009C0008230910591F10397D1F560E070E031C07C
:1009D0006623A9F161E070E08C2F58DCCFDF6093D3
:1009E0007C0470937D0480937E0490937F0427C0E1
:1009F000C5DF00917C0410917D0420917E0430912C
:100A00007F04AB01BC01401B510B620B730B809147
:100A10008E0490918F04A0E0B0E084179507A6079C
:100A2000B70718F462E070E004C0D11108C063E0B9
:100A300070E08C2FDF91CF911F910F9127CCDF9128
:100A4000CF911F910F9108951F920F920FB60F92A1
:100A500011242F933F938F939F93AF93BF938091D4
:100A60001D0390911E03A0911F03B09120033091AC
:100A70001C0323E0230F2D3720F40196A11DB11D87
:100A800005C026E8230F0296A11DB11D20931C036B
:100A900080931D0390931E03A0931F03B093200324
:100AA0008091210390912203A0912303B09124030C
:100AB0000196A11DB11D8093210390932203A09361
:100AC0002303B0932403BF91AF919F918F913F91E6
:100AD0002F910F900FBE0F901F901895CF92DF921D
:100AE000EF92FF920F931F93CF93DF937C016C01E2
:100AF00087E0C80ED11CC0E0D0E0062F10E0B8019E
:100B00000C2E02C0759567950A94E2F76170F601A4
:100B100081916F0177DE2196C430D10581F7C7013D
:100B2000DF91CF911F910F91FF90EF90DF90CF90C9
:100B30009BCECF92DF92EF92FF920F931F93CF93B2
:100B4000DF93EC01F62E642F8C815CDE8D818F3F6C
:100B500011F060E057DE8F850F2D10E084FF23C079
:100B60006E0187E0C80ED11CE12CF12CB8010E2CCF
:100B700002C0759567950A94E2F76170F60181915C
:100B80006F0140DEFFEFEF1AFF0A88E0E816F1047C
:100B900069F7CE01DF91CF911F910F91FF90EF90F8
:100BA000DF90CF9061CEB80184E0759567958A9506
:100BB000E1F7CE0193DF6F2DCE01DF91CF911F9131
:100BC0000F91FF90EF90DF90CF9088CF41E0B1DFA1
:100BD00081E090E0089540E0ACCFFC01443008F0A3
:100BE00043E08389481710F04FEF480FDF01A40F4F
:100BF000B11D54969C91690F6068CF01ECCFCF93E3
:100C0000DF93EC01FB01828193819B838A8382E4E1
:100C100092E09983888384818C8385818D8386810A
:100C20008E8388E03796DE01179601900D928A95A3
:100C3000E1F7FB0187858F878089888B8189898B84
:100C400082898A8B83898B8B84899589A689B789C8
:100C50008C8B9D8BAE8BBF8BDF91CF910895CF9303
:100C6000DF9320911404309115042530310574F47C
:100C7000EB01F901EE5EFB4F818765E0620F41E019
:100C8000CE01ABDF6DE972E0CE015CDD8091140432
:100C90009091150401969093150480931404DF91AC
:100CA000CF910895EF92FF920F931F93CF93DF930D
:100CB000EC01623018F08F8588608F876B8B1C8AFF
:100CC00080E48D8B80E18E8B80E58F8B61E08C8161
:100CD000DEDD8D818F3F11F061E0D9DD61E08E8135
:100CE000D6DD7E0187E0E80EF11C00E010E08F8584
:100CF00084FD03C084E090E002C088E090E0081723
:100D0000190744F461E0F70181917F01C0DD0F5FB5
:100D10001F4FEDCF8BE39DE00197F1F760E08C81F1
:100D200071DD60E08E816EDD8D818F3F11F060E0BE
:100D300069DD6F8564FD19C063E0CE01CFDE0BE491
:100D400016E4C8010197F1F763E0CE01C7DEC801E0
:100D50000197F1F763E0CE01C1DE83E592E00197F0
:100D6000F1F762E0CE01BADE13C06062CE0133DF7C
:100D70008BE496E40197F1F76F856062CE012BDF7B
:100D800083E592E00197F1F76F856062CE0123DF82
:100D90006F856062CE011FDF84E0888B6CE0CE013E
:100DA0001ADF61E0CE0117DF8BE39FE10197F1F7D6
:100DB00082E0898B66E0CE01DF91CF911F910F9188
:100DC000FF90EF9008CFEDE2F3E0A089B18982E0D7
:100DD0008C93A485B5851C92A685B7858FEC8C93E2
:100DE000108EA489B58986E08C93A289B3898C91F1
:100DF00080618C93A289B3898C9188608C93A2893D
:100E0000B3898C9180688C930288F389E02D80816E
:100E10008F7D808308958F929F92AF92BF92CF92E1
:100E2000DF92EF92FF926B017C01A8DD4B015C0128
:100E3000C60ED71EE81EF91EA1DD681579058A05C4
:100E40009B0528F0C616D706E806F906A8F7FF9016
:100E5000EF90DF90CF90BF90AF909F908F900895CC
:100E6000FF920F931F93CF93DF93CDB7DEB76897B1
:100E70000FB6F894DEBF0FBECDBFF82E8B01809168
:100E80002204909123048230910529F0833091054A
:100E900081F00197B1F480ED8F0D8A3090F4B801A4
:100EA000CE010196ACDEBE016F5F7F4F8F2DD7DE86
:100EB00008C040E060E0C80190DE6FE972E0C80160
:100EC00041DC68960FB6F894DEBF0FBECDBFDF9150
:100ED000CF911F910F91FF900895CF93DF93EB0176
:100EE000813489F03CF4833209F42FC18A3209F449
:100EF00000C1A0C1833409F48BC00CF474C08434E5
:100F000009F4F7C097C180912204909123040197BE
:100F100009F090C1209114043091150440911204FD
:100F2000509113042417350789F01092150410927C
:100F3000140480E090E020E3841795070CF01BC1B7
:100F4000FC01EE5EFB4F21870196F6CFC9018217A7
:100F5000930784F4FC01EE5EFB4F51850197FC0181
:100F6000EE5EFB4F4581541791F3109215041092D9
:100F7000140401C1109215041092140441E060E0C1
:100F8000CE012BDE6AE772E0CE01DCDB40E060E000
:100F9000CE0123DE60EB72E0CE01D4DB41E060E005
:100FA000CE011BDE68EE73E080E090E0AFDC61EC28
:100FB00072E0CE01C7DB68EB7BE080E090E0A6DC6E
:100FC00040E060E0CE0109DE6AE772E0CE01BADB04
:100FD00041E060E0CE0101DE6AE772E0CE01B2DB03
:100FE00083E090E0C3C01092150410921404209185
:100FF00012043091130480E090E040E382179307DD
:101000000CF072C0FC01EE5EFB4F41870196F6CFFB
:101010008091220490912304029709F00BC18091E2
:101020001404909115042091120430911304281790
:10103000390714F0009789F41092150410921404E3
:1010400080E090E040E3821793070CF0C0C0FC0101
:10105000EE5EFB4F41870196F6CF90931304809389
:10106000120420E030E02817390744F4F901EE5E5D
:10107000FB4F418544832F5F3F4FF5CF10921504FE
:101080001092140441E060E0CE01A7DD6AE772E04F
:10109000CE0158DB40E060E0CE019FDD60EB72E006
:1010A000CE0150DB41E060E0CE0197DD68EE73E0F9
:1010B00080E090E02BDC62ED72E0CE0143DB68EB78
:1010C0007BE080E090E022DC40E060E0CE0185DD66
:1010D00068E772E0CE0136DB41E060E0CE017DDD05
:1010E00068E772E0CE012EDB1092230410922204F6
:1010F000A1C08091220490912304892B09F09AC009
:1011000040E060E0CE0169DD63EE72E0CE011ADB03
:1011100041E060E0CE0161DD60ED77E080E090E0ED
:10112000F5DB64EF72E0CE010DDB60ED77E080E08F
:1011300090E0ECDB41E060E0CE014FDD68E772E07B
:10114000CE0100DB82E090E011C0809122049091FA
:101150002304892B09F06EC040E060E0CE013DDD44
:101160006DEF72E0CE01EEDA81E090E0909323041F
:10117000809322045FC040E060E0CE012EDD6AE78C
:1011800072E0CE01DFDA41E060E0CE0126DD6AE701
:1011900072E0CE01D7DA40E060E0CE011EDD6DE006
:1011A00073E0CE01CFDA68EB7BE080E090E0AEDB6D
:1011B00041E060E0CE0111DD6AE772E0CE01C2DA03
:1011C00040E060E0CE0109DD6DEF72E02BC040E051
:1011D00060E0CE0102DD6AE772E0CE01B3DA41E001
:1011E00060E0CE01FADC6AE772E0CE01ABDA40E003
:1011F00060E0CE01F2DC6DE073E0CE01A3DA68EBD3
:101200007BE080E090E082DB41E060E0CE01E5DC65
:101210006AE772E0CE0196DA40E060E0CE01DDDC04
:1012200063EE72E0CE018EDA41E060E0CE01DF9144
:10123000CF91D3CCDF91CF910895CF93DF93CDB7EA
:10124000DEB76A970FB6F894DEBF0FBECDBF7894B5
:1012500084B5826084BD84B5816084BD85B58260BB
:1012600085BD85B5816085BD80916E00816080936C
:101270006E001092810080918100826080938100D5
:1012800080918100816080938100809180008160E5
:10129000809380008091B10084608093B100809140
:1012A000B00081608093B000809191008260809353
:1012B00091008091910081608093910080919000D5
:1012C0008160809390008091A10082608093A10052
:1012D0008091A10081608093A1008091A000816035
:1012E0008093A000809121018260809321018091F0
:1012F0002101816080932101809120018160809390
:10130000200180917A00846080937A0080917A0035
:10131000826080937A0080917A00816080937A0065
:1013200080917A00806880937A001092C1001092B8
:101330000E0410920F0410921004109211041092D7
:10134000CC031092CD031092CE031092CF0368EB22
:101350007BE080E090E05FDD8DE293E090930D0410
:1013600080930C0430DD0ADB6093CC037093CD03D3
:101370008093CE039093CF0366E572E080910C04D6
:1013800090910D04DFD96AE070E080E090E043DDE9
:1013900081E08093E00317DD62E083E994E082DC82
:1013A00040E063E083E994E018DC68E672E083E9FA
:1013B00094E06BD965E672E083E994E066D941E098
:1013C00061E083E994E009DC67E772E083E994E097
:1013D000B9D964EF862E99249394A12CB12CCEDA3E
:1013E000672B682B692B39F4C9DA623071058105E6
:1013F000910508F4F7C0C2DA6093290370932A03B9
:1014000080932B0390932C030091250310912603C6
:1014100020912703309128036017710782079307F3
:1014200040F46093250370932603809327039093E1
:101430002803009125031091260320912703309162
:1014400028036B017C01C01AD10AE20AF30A970152
:1014500086010A3F11052105310508F4C3C06093D8
:10146000250370932603809327039093280380928B
:10147000D8039092D903A092DA03B092DB031092C2
:10148000DC031092DD031092DE031092DF038091E3
:10149000D0039091D103A091D203B091D303809354
:1014A000D4039093D503A093D603B093D70366DA01
:1014B0006093D0037093D1038093D2039093D303AE
:1014C0005DDA6093CC037093CD038093CE03909349
:1014D000CF0354DA6B017C0169E872E080910C045F
:1014E00090910D042FD92AE041E050E060E070E0D7
:1014F00080910C0490910D04DDD860E972E0809138
:101500000C0490910D041ED92AE0B701A601809128
:101510000C0490910D04CED862E972E080910C0425
:1015200090910D040FD98091D0039091D103A09197
:10153000D203B091D303B701A601481B590B6A0B24
:101540007B0B2AE080910C0490910D04B3D862E9E2
:1015500072E080910C0490910D04F4D84091D00376
:101560005091D1036091D2037091D3038091D40341
:101570009091D503A091D603B091D703481B590B86
:101580006A0B7B0B2AE080910C0490910D0492D899
:1015900064E972E080910C0490910D04D3D8EED9E7
:1015A000AB01BC012AE080910C0490910D0482D81B
:1015B00000910C0410910D0466E972E0C80165D831
:1015C00065E672E0C80161D865E070E080E090E017
:1015D00022DCD4D96093D0037093D1038093D203DB
:1015E0009093D30381E080939004C8D90091800444
:1015F000109181042091820430918304AB01BC01DD
:10160000401B510B620B730B80918C0490918D04E5
:10161000A0E0B0E084179507A607B70708F023C13C
:1016200010E080918A04181758F4E0918604F09134
:101630008704E10FF11D62E0808129D91F5FF1CF9E
:10164000D12C412C512C3201439480918B04D8161B
:1016500008F062C0ED2CF12CE0918804F09189042F
:10166000EE0DFF1D61E0808112D9E0918804F091B8
:101670008904EE0DFF1D60E08081C4D8D301C20152
:101680000D2C04C0880F991FAA1FBB1F0A94D2F704
:101690009C011C0120943094C12C80918A04C816AE
:1016A00030F50C2D10E08091860490918704FC01A8
:1016B000E00FF11F8081298F3A8F0E94F0020C5FAA
:1016C0001F4F298D3A8D000F111FF801EC5DFB4F64
:1016D000892B29F480819181822B932B04C08081F6
:1016E00091818221932191838083C394D6CFE0910D
:1016F0008804F0918904EE0DFF1D61E0808182D89D
:101700008091880490918904FC01EE0DFF1D60E03A
:101710008081BDD8D39499CFE0E4F4E083819481B3
:10172000892B39F41082EE24EA94FE2CF282E182B5
:101730001582369684E0EC37F80781F7E12C96E0C5
:10174000F92E80918A04E81608F052C0D12C0E2D93
:1017500010E0000F111F045D1B4F20918B04D21667
:1017600008F044C0F801608171810D2C02C07695AB
:1017700067950A94E2F761707727E29E9001112441
:101780002D0D311DE0918404F0918504E20FF31FCB
:10179000A081E4E2F4E080E0458D568D42175307C6
:1017A00011F461701AC08F5F36968A30A9F7672BE3
:1017B000D9F0E0E4F4E080E090E0408141110FC016
:1017C000F89EF001F99EF00D1124EC5DFB4FA48F03
:1017D000368F258F10A2178E61E0DCD805C00196E8
:1017E00036968A30910549F7D394B7CFE394A9CFC1
:1017F00080E090E010E0FC01EC5DFB4F21A12111A5
:1018000011E006968C339105B1F7B8D86093800447
:10181000709381048093820490938304112319F1BF
:10182000809145048823F9F0809143049091440409
:101830000197C9F4109140041123B9F063E974E0F1
:10184000CE010196DCD9BE016F5F7F4F812F45DB52
:1018500063E974E0CE010196D2D9BE016F5F7F4F7C
:10186000812FFEDA02C0109290040E946202B7CD6E
:101870001092300310922F0388EE93E0A0E0B0E0C6
:101880008093310390933203A0933303B0933403D6
:1018900086E292E090932E0380932D0385EC90E0F6
:1018A00090933A038093390384EC90E090933C0347
:1018B00080933B0380EC90E090933E0380933D0344
:1018C00081EC90E09093400380933F0382EC90E0A2
:1018D000909342038093410386EC90E090934403FD
:1018E00080934303109246031092470310924803DB
:1018F000109249031092D0031092D1031092D20398
:101900001092D3031092D4031092D5031092D603F1
:101910001092D7031092D8031092D9031092DA03D1
:101920001092DB031092DC031092DD031092DE03B1
:101930001092DF03109296041092950482E492E0D4
:10194000909394048093930480E2809397048FEFA4
:10195000809398048EE18093990486E180939A04A1
:1019600088E180939B048AE180939C048CE18093BE
:101970009D0410929E0410929F041092A004109255
:10198000A1041092A20461E083E994E08BD9109243
:10199000260410922A041092290410922B0488E342
:1019A00092E0909325048093240480E090E0FC0171
:1019B000EC5DFB4F148E10A2178E11A206968C338D
:1019C0009105A9F784E092E09093870480938604C0
:1019D00080E092E0909389048093880484E080936F
:1019E0008A0480938B0488E092E09093850480932E
:1019F00084048AE090E090938D0480938C0484EFBB
:101A000091E090938F0480938E0410929204109230
:101A1000910410928004109281041092820410921A
:101A200083041092900485E090E0909313048093D7
:101A300012041092150410921404E8E1F2E0A6E1F9
:101A4000B4E001900D928A95E1F785E0EDE1F2E0D6
:101A5000ABE1B4E001900D928A95E1F71092210478
:101A60001092200410922304109222040895A1E2FF
:101A70001A2EAA1BBB1BFD010DC0AA1FBB1FEE1F08
:101A8000FF1FA217B307E407F50720F0A21BB30B53
:101A9000E40BF50B661F771F881F991F1A9469F7CF
:101AA00060957095809590959B01AC01BD01CF012B
:101AB0000895EE0FFF1F881F8BBF0790F691E02D52
:0E1AC000199481E090E0F89400C0F894FFCFF4
:101ACE002F31333527292B2D3132334134353642E0
:101ADE00373839432A3023443132333435303030BD
:101AEE00303000000000FB01690194014102C50184
:101AFE00A301B701000000008304310418030000A5
:101B0E000000E605690140033F03000000004303A7
:101B1E00690140033F03564D4450565F317C315F9F
:101B2E00564D4450560D0A004249454E56454E49B3
:101B3E00444F202020200020202020202020202064
:101B4E00202020202020202000564D4450455F00AC
:101B5E003A323A007C005F564D445045002A002030
:101B6E002020454E43454E4449444F20202020001E
:101B7E002020434F52524543544F202020202020F6
:101B8E0000202044495649455254415345202020B7
:101B9E002000434F4E54524153454E49412043413C
:101BAE004D420043414D42494F20434F4E542E204B
:101BBE003A202000494E47455253415200202043BF
:101BCE004F4E54524153454E49412020002020494A
:0C1BDE004E434F52524543544F2020000C
:00000001FF
