:1000000014C1000040C100003EC100003CC100001E
:100010003AC1000038C1000036C1000034C1000000
:1000200032C1000030C100002EC100002CC1000010
:100030002AC1000028C1000026C1000024C1000020
:1000400022C1000020C100001EC100001CC1000030
:100050001AC1000018C1000016C10000CCC4000085
:1000600012C1000092C4000067C400000CC100006F
:100070000AC1000008C1000006C1000004C1000060
:1000800002C1000000C10000FEC00000FCC0000072
:10009000FAC00000F8C00000F6C00000F4C0000084
:1000A000F2C00000F0C00000EEC00000ECC0000094
:1000B000EAC00000E8C00000E6C00000E4C00000A4
:1000C000E2C00000E0C00000DEC00000DCC00000B4
:1000D000DAC00000D8C00000D6C00000D4C00000C4
:1000E000D2C00000DE02E102D002D402DA0218031C
:1000F000E502E902EF02F302F702FD020103050344
:1001000018030B030F031303000021002400270032
:100110002A002D0030003300010100000401070116
:100120000A0100002200250028002B002E003100CB
:10013000340002010000050108010B01000020004D
:100140002300260029002C002F00320000010000AF
:10015000030106010901050505050705080808084A
:10016000020202020A0A080804040404010101014F
:10017000010101010303030303030303040707074A
:100180000C0C0C0C0C0C0C0C0202020206060606EF
:10019000060606060B0B0B0B0B0B0B0B01021020BC
:1001A00020080810204010204080020102010804AD
:1001B0000201010204081020408080402010080441
:1001C000020180040201804020100804020108049A
:1001D00002010102040810204080010204081020DE
:1001E000408000000A0B02090C0D0E0807030401F1
:1001F00000000000000000000000000000000000FF
:1002000000000000000000000000000000001211CB
:1002100010000000000000000000000000000000CE
:100220000000000000000000450511241FBECFEFB4
:10023000D1E2DEBFCDBF00E00CBF23E0AAE5B2E013
:1002400001C01D92AF3BB207E1F712E0A0E0B2E0BF
:10025000E2E1F2E100E00BBF02C007900D92AA3587
:10026000B107D9F711E0C5E1D1E000E005C0219761
:100270000109802FFE01BFD7C431D10780E00807F4
:10028000B1F7B2D4C4C7BCCEEBE6F2E0A089B18925
:1002900082E08C93A485B5851C92A685B7858FECEA
:1002A0008C93108EA489B58986E08C93A289B3893A
:1002B0008C9180618C93A289B3898C9188608C9396
:1002C000A289B3898C9180688C930288F389E02D90
:1002D00080818F7D8083089596E0899FD0011124CD
:1002E000A05BBC4F90967C936E935F9791E0919644
:1002F0009C9391979091BC03E091BD03F091BE0354
:10030000992339F0309751F0811108C080916C0326
:1003100004C0309719F05C968C9119940895CF928F
:10032000DF92EF92FF920F931F93CF93DF936C01B5
:100330007A018B01C0E0D0E0CE15DF0589F0D8014D
:100340006D918D01D601ED91FC910190F081E02D30
:10035000C6011995892B11F47E0102C02196ECCFBC
:10036000C701DF91CF911F910F91FF90EF90DF9028
:10037000CF900895089580E090E00895FC01538D9A
:10038000448D252F30E0842F90E0821B930B54176F
:1003900010F0CF96089501970895FC01918D828DFC
:1003A000981761F0828DDF01A80FB11D5D968C91C9
:1003B000928D9F5F9F73928F90E008958FEF9FEFD4
:1003C0000895FC01918D828D981731F0828DE80F90
:1003D000F11D858D90E008958FEF9FEF0895FC014A
:1003E000918D228D892F90E0805C9F4F821B910917
:1003F0008F73992708958BE692E0F1DF21E0892B36
:1004000009F420E0822F0895FC01848DDF01A80FFC
:10041000B11DA35ABF4F2C91848D90E001968F732C
:100420009927848FA689B7892C93A089B1898C914B
:1004300080648C93938D848D981306C00288F38911
:10044000E02D80818F7D80830895EF92FF920F933E
:100450001F93CF93DF93EC0181E0888F9B8D8C8D70
:10046000981305C0E889F989808185FD23C0F62E9F
:100470000B8D10E00F5F1F4F0F731127E02E8C8D37
:10048000E8120BC00FB607FCFACFE889F989808122
:1004900085FFF5CFCE01B8DFF2CF8B8DFE01E80FDF
:1004A000F11DE35AFF4FF0820B8FEA89FB898081AF
:1004B000806207C0EE89FF896083E889F9898081BD
:1004C0008064808381E090E0DF91CF911F910F9154
:1004D000FF90EF900895CF93DF93EC01888D8823F0
:1004E000C1F0EA89FB89808185FD05C0A889B989A9
:1004F0008C9186FD0EC00FB607FCF5CF808185FF7D
:10050000F2CFA889B9898C9185FFEDCFCE017CDF30
:10051000E8CFDF91CF91089580E090E0892B19F02A
:100520006ADF811125C080E090E0892B41F080E0F6
:1005300090E0892B21F00E94000081111CC080E016
:1005400090E0892B41F080E090E0892B21F00E941F
:100550000000811113C080E090E0892BA1F080E0C1
:1005600090E0892B81F00E94000081110AC008955B
:100570000E940000D8CF0E940000E1CF0E9400003E
:10058000EACF0C940000089590E0FC013197E2312D
:10059000F10508F04DC08827EE58FF4F8F4F2BC64E
:1005A000809180008F7703C0809180008F7D809341
:1005B0008000089580918000877FF9CF84B58F7780
:1005C00002C084B58F7D84BD08958091B0008F777F
:1005D00003C08091B0008F7D8093B000089580911A
:1005E00090008F7707C0809190008F7D03C080912D
:1005F0009000877F8093900008958091A0008F776E
:1006000007C08091A0008F7D03C08091A000877FEC
:100610008093A0000895809120018F7707C080917A
:1006200020018F7D03C080912001877F809320016E
:100630000895CF93DF93282F30E0F901EE51FE4F5C
:100640008491F901E456FE4FD491F901EA5AFE4F24
:10065000C491CC2389F0811197DFEC2FF0E0EE0FED
:10066000FF1FE45CFE4FA591B491EC91ED2381E076
:1006700090E021F480E002C080E090E0DF91CF9133
:100680000895862FD6CF1F93CF93DF93282F30E086
:10069000F901EE51FE4F8491F901E456FE4FD491D9
:1006A000F901EA5AFE4FC491CC23C1F0162F8111F3
:1006B0006BDFEC2FF0E0EE0FFF1FEE5DFE4FA5911C
:1006C000B4918FB7F894111105C09C91ED2FE0956E
:1006D000E92302C0EC91ED2BEC938FBFDF91CF911A
:1006E0001F910895862F642FCECFCF93DF9390E094
:1006F000FC01E456FE4F2491FC01EA5AFE4F84911E
:10070000882361F190E0880F991FFC01E85FFE4F9C
:10071000C591D491FC01EE5DFE4FA591B49161119C
:1007200009C09FB7F8948881209582238883EC9133
:100730002E230BC0623061F49FB7F8943881822F6A
:10074000809583238883EC912E2B2C939FBF06C02A
:100750008FB7F894E8812E2B28838FBFDF91CF913C
:100760000895862F642FC1CF2FB7F89460915F0250
:100770007091600280916102909162022FBF089592
:100780008F929F92AF92BF92CF92DF92EF92FF92A1
:100790006B017C01E9DF4B015C01C60ED71EE81E30
:1007A000F91EE2DF681579058A059B0528F0C61653
:1007B000D706E806F906A8F7FF90EF90DF90CF90F4
:1007C000BF90AF909F908F9008950F931F93CF93FA
:1007D000DF93C82FD62F86E0C89FF0011124E05B7D
:1007E000FC4F11A2878D90A181309105E1F01CF49E
:1007F000892B49F03FC08230910591F10397D1F5E3
:1008000060E070E031C06623A9F161E070E08C2FF8
:1008100063DDAADF6093A8037093A9038093AA0302
:100820009093AB0327C0A0DF0091A8031091A90308
:100830002091AA033091AB03AB01BC01401B510BCB
:10084000620B730B8091BA039091BB03A0E0B0E000
:1008500084179507A607B70718F462E070E004C094
:10086000D11108C063E070E08C2FDF91CF911F9110
:100870000F9132CDDF91CF911F910F910895C3D485
:100880006115710579F0FB0101900020E9F73197BE
:10089000AF01461B570BDC01ED91FC910280F38107
:1008A000E02D199480E090E008954F925F926F924E
:1008B0007F92EF92FF920F931F93CF93DF93CDB769
:1008C000DEB7A1970FB6F894DEBF0FBECDBF7C0197
:1008D000FA01CB0119A2223008F42AE08E010F5D43
:1008E0001F4F422E512C612C712CBF01A30192018C
:1008F00060D4F901CA01015011096A3014F4605D35
:1009000001C0695CD8016C93232B242B252B69F73C
:10091000B801C701B5DFA1960FB6F894DEBF0FBED0
:10092000CDBFDF91CF911F910F91FF90EF907F90FE
:100930006F905F904F9008951F920F920FB60F9295
:1009400011240BB60F922F933F934F935F936F93A6
:100950007F938F939F93AF93BF93EF93FF938BE618
:1009600092E052DDFF91EF91BF91AF919F918F91F6
:100970007F916F915F914F913F912F910F900BBE9F
:100980000F900FBE0F901F9018951F920F920FB6E9
:100990000F9211240BB60F922F938F939F93EF9387
:1009A000FF93E0917B02F0917C028081E0918102D3
:1009B000F091820282FD12C09081809184028F5F4B
:1009C0008F7320918502821751F0E0918402F0E04C
:1009D000E559FD4F958F8093840201C08081FF917E
:1009E000EF919F918F912F910F900BBE0F900FBEA3
:1009F0000F901F9018951F920F920FB60F9211240F
:100A00002F933F938F939F93AF93BF9380915F02F8
:100A100090916002A0916102B091620230915E02F9
:100A200023E0230F2D3720F40196A11DB11D05C031
:100A300026E8230F0296A11DB11D20935E0280932C
:100A40005F0290936002A0936102B0936202809172
:100A50005A0290915B02A0915C02B0915D020196F6
:100A6000A11DB11D80935A0290935B02A0935C027A
:100A7000B0935D02BF91AF919F918F913F912F9164
:100A80000F900FBE0F901F90189510926E0210924B
:100A90006D0288EE93E0A0E0B0E080936F02909347
:100AA0007002A0937102B09372028CE192E0909375
:100AB0006C0280936B0285EC90E0909378028093B7
:100AC000770284EC90E090937A028093790280EC34
:100AD00090E090937C0280937B0281EC90E0909375
:100AE0007E0280937D0282EC90E09093800280935E
:100AF0007F0286EC90E090938202809381021092B4
:100B0000840210928502109286021092870210923F
:100B10000E0310920F031092100310921103109203
:100B200012031092130310921403109215031092E3
:100B300016031092170310921803109219031092C3
:100B40001A0310921B0310921C0310921D031092A3
:100B500052031092560310925503109257038EE2DF
:100B600092E0909351038093500380E090E0FC0169
:100B7000E05BFC4F148E10A2178E11A206968C33E8
:100B80009105A9F784E092E09093B3038093B203B8
:100B900080E092E09093B5038093B40384E0809367
:100BA000B6038093B70388E092E09093B1038093FB
:100BB000B0038AE090E09093B9038093B80384EF88
:100BC00091E09093BB038093BA031092BE031092FE
:100BD000BD031092AC031092AD031092AE031092BD
:100BE000AF031092BC030895789484B5826084BDED
:100BF00084B5816084BD85B5826085BD85B5816021
:100C000085BD80916E00816080936E00109281009E
:100C10008091810082608093810080918100816059
:100C2000809381008091800081608093800080911A
:100C3000B10084608093B1008091B00081608093A6
:100C4000B00080919100826080939100809191002A
:100C500081608093910080919000816080939000EA
:100C60008091A10082608093A1008091A1008160A9
:100C70008093A1008091A00081608093A00080916A
:100C80002101826080932101809121018160809304
:100C900021018091200181608093200180917A0060
:100CA000846080937A0080917A00826080937A00D9
:100CB00080917A00816080937A0080917A008068C8
:100CC00080937A001092C10010924C0310924D0351
:100CD00010924E0310924F0310920A0310920B03CE
:100CE00010920C0310920D0368EB7BE080E090E023
:100CF00047DD8BE692E090934B0380934A03C4DA7E
:100D000033DD60930A0370930B0380930C0390937D
:100D10000D0364E372E080914A0390914B03B0DDD0
:100D20006AE070E080E090E02BDD81E080931E03BC
:100D3000ABDA44EF842E99249394A12CB12C14DDCA
:100D4000672B682B692B39F40FDD62307105810543
:100D5000910508F4F7C008DD60936702709368029C
:100D60008093690290936A02009163021091640279
:100D70002091650230916602601771078207930720
:100D800040F46093630270936402809365029093D1
:100D90006602009163021091640220916502309115
:100DA00066026B017C01C01AD10AE20AF30A9701BC
:100DB00086010A3F11052105310508F4C3C060937F
:100DC000630270936402809365029093660280923E
:100DD000160390921703A0921803B0921903109271
:100DE0001A0310921B0310921C0310921D03809192
:100DF0000E0390910F03A0911003B0911103809303
:100E0000120390931303A0931403B0931503ACDC67
:100E100060930E0370930F0380931003909311035C
:100E2000A3DC60930A0370930B0380930C039093ED
:100E30000D039ADC6B017C0166E472E080914A0349
:100E400090914B031DDD2AE041E050E060E070E04E
:100E500080914A0390914B0328DD6DE472E080910C
:100E60004A0390914B030CDD2AE0B701A601809163
:100E70004A0390914B0319DD6FE472E080914A03BD
:100E800090914B03FDDC80910E0390910F03A09194
:100E90001003B0911103B701A601481B590B6A0B4F
:100EA0007B0B2AE080914A0390914B03FEDC6FE4B8
:100EB00072E080914A0390914B03E2DC40910E0373
:100EC00050910F03609110037091110380911203F0
:100ED00090911303A0911403B0911503481B590B73
:100EE0006A0B7B0B2AE080914A0390914B03DDDC77
:100EF00061E572E080914A0390914B03C1DC34DCE0
:100F0000AB01BC012AE080914A0390914B03CDDCF8
:100F1000C0914A03D0914B0363E572E0CE01B0DC8F
:100F200063E472E0CE01ACDC65E070E080E090E06C
:100F300027DC1ADC60930E0370930F038093100379
:100F400090931103DD24D394D092BC030DDC009167
:100F5000AC031091AD032091AE033091AF03AB0110
:100F6000BC01401B510B620B730B8091B803909135
:100F7000B903A0E0B0E084179507A607B70708F00B
:100F800014C1C0E08091B603C81758F4E091B203D1
:100F9000F091B303EC0FF11D62E08081A6DBCF5F1F
:100FA000F1CFF12C412C512C320143948091B703A5
:100FB000F81608F05AC00F2D10E0E091B403F0913C
:100FC000B503E00FF11F61E080818FDBE091B40396
:100FD000F091B503E00FF11F60E0808154DBD30195
:100FE000C2010F2C04C0880F991FAA1FBB1F0A94AF
:100FF000D2F71C016C01C094D094E12C8091B6030F
:10100000E816F0F4CE2DD0E0E091B203F091B303F6
:10101000EC0FFD1F80810DDB2496CC0FDD1FC05B24
:10102000DC4F892B29F4888199818229932904C076
:10103000888199818C219D2199838883E394DECFD7
:10104000E091B403F091B503E00FF11F61E08081FE
:101050001ADB8091B4039091B503FC01E00FF11FFE
:1010600060E0808142DBF394A1CFECE6F3E0838182
:101070009481892B39F41082EE24EA94FE2CF282BA
:10108000E1821582369683E0E83AF80781F700E0BE
:1010900016E08091B603081708F051C0F12CC02F5C
:1010A000D0E0CC0FDD1FC85ADC4F2091B703F216F9
:1010B00008F043C0688179810F2C02C0769567954E
:1010C0000A94E2F761707727029F900111242F0D97
:1010D000311DE091B003F091B103E20FF31FA08145
:1010E000E0E5F3E080E0458D568D4217530711F49B
:1010F00061701AC08F5F36968A30A9F7672BD9F0D6
:10110000ECE6F3E080E090E0408141110FC0189FD1
:10111000F001199FF00D1124E05BFC4FA48F368F76
:10112000258F10A2178E61E050DB05C00196369620
:101130008A30910549F7F394B8CF0F5FAACF80E0CA
:1011400090E0C0E0FC01E05BFC4F21A12111C1E077
:1011500006968C339105B1F707DB6093AC0370936F
:10116000AD038093AE039093AF03CC23F1F0809155
:1011700071038823D1F080916F03909170030197E0
:10118000A1F460916C03662391F0E0916B02F09101
:101190006C020190F081E02D8BE692E0199563E4FA
:1011A00072E08BE692E06CDB02C01092BC03B4D913
:1011B000C6CDA1E21A2EAA1BBB1BFD010DC0AA1FA2
:1011C000BB1FEE1FFF1FA217B307E407F50720F0B0
:1011D000A21BB30BE40BF50B661F771F881F991F2B
:1011E0001A9469F760957095809590959B01AC0174
:1011F000BD01CF010895EE0FFF1F881F8BBF079021
:10120000F691E02D199481E090E0F89400C0F894F4
:02121000FFCF0E
:101212002F31333527292B2D3132334134353642A4
:10122200373839432A3023440000000025028F0159
:10123200BE016B02EF01CD01E10100000000B1032C
:1012420072034103564D4450565F317C315F564D17
:101252004450560D0A00564D4450455F003A323A0A
:0A126200007C005F564D445045002B
:00000001FF
