:1000000027C1000055C1000053C1000051C10000CC
:100010004FC100004DC100004BC1000049C10000AC
:1000200047C100000DC600000BC6000009C6000055
:100030003FC100003DC100003BC1000039C10000CC
:1000400037C1000035C1000033C1000031C10000DC
:100050002FC100002DC100002BC1000048C50000C9
:1000600027C10000B7C500008CC5000021C10000F9
:100070001FC100001DC100001BC1000019C100000C
:1000800017C1000015C1000013C1000011C100001C
:100090000FC100000DC100000BC1000009C100002C
:1000A00007C1000005C1000003C1000001C100003C
:1000B000FFC00000FDC00000FBC00000F9C0000050
:1000C000F7C00000F5C00000F3C00000F1C0000060
:1000D000EFC00000EDC00000EBC00000E9C0000070
:1000E000E7C00000B802BB02AA02AE02B202F202EE
:1000F000BF02C302C902CD02D102D702DB02DF0276
:10010000F202E502E902ED0268036D0372037C036B
:100110008603FF0390039803A003AA03B403BE035E
:10012000CD03D703FF03E103EB03F5030000210038
:10013000240027002A002D003000330001010000B8
:10014000040107010A0100000A0B02090C0D0E0848
:100150000703040100000000000000000000000090
:10016000000000000000000000000000000000008F
:10017000000012111000000000000000000000004C
:10018000000000000000000000000000000022004D
:10019000250028002B002E00310034000201000051
:1001A000050108010B0100002000230026002900A2
:1001B0002C002F003200000100000301060109019C
:1001C00005050505070508080808020202020A0AD3
:1001D00008080404040401010101010101010303F1
:1001E000030303030303040707070C0C0C0C0C0C9C
:1001F0000C0C0202020206060606060606060B0B99
:100200000B0B0B0B0B0B01021020200808102040D9
:1002100010204080020102010804020101020408CA
:100220001020408080402010080402018004020158
:1002300080402010080402010804020101020408A1
:100240001020408001020408102040809E064309CF
:1002500011241FBECFEFD1E2DEBFCDBF00E00CBF47
:1002600023E0A4E5B2E001C01D92AA36B207E1F78F
:1002700012E0A0E0B2E0E2EEF7E100E00BBF02C066
:1002800007900D92A435B107D9F711E0C7E2D1E08C
:1002900000E006C021970109802FFE010E949F09FE
:1002A000C632D10780E00807A9F701D60C94E00B0D
:1002B000A7CECF92DF92EF92FF920F931F93CF932F
:1002C000DF936C017A018B01C0E0D0E0CE15DF0531
:1002D00089F0D8016D918D01D601ED91FC910190CD
:1002E000F081E02DC6011995892B11F47E0102C021
:1002F0002196ECCFC701DF91CF911F910F91FF9015
:10030000EF90DF90CF900895FC01538D448D252F01
:1003100030E0842F90E0821B930B541710F0CF969F
:10032000089501970895FC01918D828D981761F0D1
:10033000828DDF01A80FB11D5D968C91928D9F5F1C
:100340009F73928F90E008958FEF9FEF0895FC01C7
:10035000918D828D981731F0828DE80FF11D858D7A
:1003600090E008958FEF9FEF0895FC01918D228D0D
:10037000892F90E0805C9F4F821B91098F73992792
:10038000089581EA92E0F1DF21E0892B09F420E071
:10039000822F0895FC01848DDF01A80FB11DA35A9F
:1003A000BF4F2C91848D90E001968F739927848F95
:1003B000A689B7892C93A089B1898C9180648C938C
:1003C000938D848D981306C00288F389E02D808177
:1003D0008F7D80830895EF92FF920F931F93CF93A9
:1003E000DF93EC0181E0888F9B8D8C8D981305C085
:1003F000E889F989808185FD23C0F62E0B8D10E0F8
:100400000F5F1F4F0F731127E02E8C8DE8120BC06A
:100410000FB607FCFACFE889F989808185FFF5CF0F
:10042000CE01B8DFF2CF8B8DFE01E80FF11DE35A4C
:10043000FF4FF0820B8FEA89FB898081806207C0C1
:10044000EE89FF896083E889F989808180648083EF
:1004500081E090E0DF91CF911F910F91FF90EF909D
:100460000895CF93DF93EC01888D8823C1F0EA894A
:10047000FB89808185FD05C0A889B9898C9186FD9D
:100480000EC00FB607FCF5CF808185FFF2CFA8899B
:10049000B9898C9185FFEDCFCE017CDFE8CFDF916C
:1004A000CF91089580E090E0892B19F06ADF8111E7
:1004B00025C080E090E0892B41F080E090E0892B1E
:1004C00021F00E94000081111CC080E090E0892B87
:1004D00041F080E090E0892B21F00E940000811122
:1004E00013C080E090E0892BA1F080E090E0892BA0
:1004F00081F00E94000081110AC008950E9400004E
:10050000D8CF0E940000E1CF0E940000EACF0C94F7
:1005100000000895362F90E0FC01EA5BFE4F449105
:10052000FC01EA5FFD4F2491FC01E054FE4F9491E1
:10053000992309F46AC0442309F454C050E0FA0135
:100540003197E231F10508F04DC08827EE58FF4F92
:100550008F4FF5C6809180008F7707C08091800013
:100560008F7D03C080918000877F809380003AC098
:1005700084B58F7702C084B58F7D84BD33C08091F0
:10058000B0008F7703C08091B0008F7D8093B00062
:1005900029C0809190008F7707C0809190008F7D57
:1005A00003C080919000877F809390001BC0809152
:1005B000A0008F7707C08091A0008F7D03C080913D
:1005C000A000877F8093A0000DC0809120018F77CD
:1005D00007C0809120018F7D03C080912001877F1B
:1005E00080932001E92FF0E0EE0FFF1FE457FE4F4C
:1005F000A591B4918FB7F894EC91311103C0209577
:100600002E2301C02E2B2C938FBF0895CF93DF9301
:1006100090E0FC01EA5FFD4F2491FC01E054FE4FA5
:100620008491882361F190E0880F991FFC01E45DBB
:10063000FE4FC591D491FC01E457FE4FA591B491B2
:10064000611109C09FB7F89488812095822388831F
:10065000EC912E230BC0623061F49FB7F89438817F
:10066000822F809583238883EC912E2B2C939FBF20
:1006700006C08FB7F894E8812E2B28838FBFDF91B7
:10068000CF9108951F93CF93DF93182FEB0161E073
:10069000BDDF209711F460E004C0CF3FD10531F4F5
:1006A00061E0812FDF91CF911F9134CFE12FF0E0F6
:1006B000EA5BFE4FE4914E2F50E0FA013197E231B0
:1006C000F10508F09CC08827EC57FF4F8F4F37C6C5
:1006D00084B5806884BDC7BD97C084B5806284BD81
:1006E000C8BD92C080918000806880938000D093C4
:1006F0008900C093880088C08091800080628093C8
:100700008000D0938B00C0938A007EC080918000CF
:10071000886080938000D0938D00C0938C0074C05B
:100720008091B00080688093B000C093B3006CC02B
:100730008091B00080628093B000C093B40064C028
:1007400080919000806880939000D0939900C0932E
:1007500098005AC080919000806280939000D0935E
:100760009B00C0939A0050C0809190008860809355
:100770009000D0939D00C0939C0046C08091A00043
:1007800080688093A0008091A0008F7B8093A00060
:10079000D093A900C093A80037C08091A0008062C8
:1007A0008093A000D093AB00C093AA002DC080918D
:1007B000A00088608093A000D093AD00C093AC00EF
:1007C00023C080912001806880932001D09329016B
:1007D000C093280119C0809120018062809320017C
:1007E000D0932B01C0932A010FC080912001886013
:1007F00080932001D0932D01C0932C0105C0C038F7
:10080000D1050CF04DCF47CFDF91CF911F910895C7
:1008100020919602309197022817390771F4909130
:10082000940280919502981741F0E0919402F0E0D3
:10083000EC5AFD4F808190E008958FEF9FEF08956F
:1008400008951F93CF93DF93DC015C962D913C912B
:100850005D972115310539F481E090E013969C9362
:100860008E9312973DC05196ED91FC915297509600
:100870009C915097892F80951FB75E964C915E97FB
:1008800041FB772770F941FD6095F894408177230B
:1008900011F0492B01C048234083E9012197F1F76A
:1008A00048E0508160FF02C0592B01C0582350839B
:1008B000E9012197F1F76695415099F7772321F0E7
:1008C00090818923808303C08081982B90831FBFF0
:1008D0005C968D919C915D970197F1F721E030E056
:1008E000C901DF91CF911F91089520919602309117
:1008F00097022817390761F480919502209194029C
:1009000090E0805C9F4F821B910960E470E004C519
:1009100080E090E008952091960230919702281788
:100920003907B9F49091940280919502981789F053
:10093000E0919402F0E0EC5AFD4F80812091940206
:1009400030E02F5F3F4F2F7333272093940290E0C6
:1009500008958FEF9FEF0895E0919602F09197022E
:10096000E817F90769F4A389B4899C918589809572
:1009700089238C93109297021092960281E0089539
:1009800080E00895089580E090E008950F931F930C
:10099000CF93DF93EC0188819981009729F02A8118
:1009A0003B812617370780F48B016F5F7F4F10D68E
:1009B000009761F0998388831B830A832C813D8192
:1009C000232B11F4FC01108281E001C080E0DF9153
:1009D000CF911F910F910895EF92FF920F931F9364
:1009E000CF93DF93EC017B018A01BA01CFDF28812D
:1009F000398181110CC02115310511F0C90150D583
:100A0000198218821D821C821B821A8205C01D83D6
:100A10000C83B701C901CDD6CE01DF91CF911F91D3
:100A20000F91FF90EF900895EF92FF920F931F9315
:100A3000CF93DF931F921F92CDB7DEB77C01C70122
:100A400054DF892B09F449C0C70165DF80933E0359
:100A5000813409F189831A82009143031091440380
:100A60000F5F1F4FB8018FE393E090DF882339F3C6
:100A700020913F03309140038091430390914403C0
:100A8000BE016F5F7F4F820F931F93D61093440375
:100A900000934303D4CF80913F039091400300978C
:100AA00011F0FFD303C060E070E0CB0189E0EADD24
:100AB00080913F0390914003009711F0F2D303C05F
:100AC00060E070E0CB0183E0DDDD40E050E062E516
:100AD00072E08FE393E080DFB2CF0F900F90DF9151
:100AE000CF911F910F91FF90EF90089555D61F92CF
:100AF0000F920FB60F9211242F933F938F939F93D2
:100B0000AF93BF9380919D0290919E02A0919F020E
:100B1000B091A00230919C0223E0230F2D3720F4E6
:100B20000196A11DB11D05C026E8230F0296A11D47
:100B3000B11D20939C0280939D0290939E02A093EE
:100B40009F02B093A0028091980290919902A09187
:100B50009A02B0919B020196A11DB11D809398024B
:100B600090939902A0939A02B0939B02BF91AF9188
:100B70009F918F913F912F910F900FBE0F901F90DB
:100B800018951F920F920FB60F9211240BB60F9269
:100B90002F933F934F935F936F937F938F939F9385
:100BA000AF93BF93EF93FF9381EA92E0F3DBFF9162
:100BB000EF91BF91AF919F918F917F916F915F91D5
:100BC0004F913F912F910F900BBE0F900FBE0F9042
:100BD0001F9018951F920F920FB60F9211240BB60B
:100BE0000F922F938F939F93EF93FF93E091B10216
:100BF000F091B2028081E091B702F091B80282FDDB
:100C000012C090818091BA028F5F8F732091BB02D6
:100C1000821751F0E091BA02F0E0EF55FD4F958F49
:100C20008093BA0201C08081FF91EF919F918F91D3
:100C30002F910F900BBE0F900FBE0F901F90189525
:100C40001F920F920FB60F9211240BB60F922F9393
:100C50003F934F935F936F937F938F939F93AF9344
:100C6000BF93EF93FF93E0919602F0919702309734
:100C700009F451C0968DA685B785858591FF04C07E
:100C80009C91892329F447C09C91892309F043C092
:100C9000A389B4899C918589809589238C938689C1
:100CA00097890197F1F7608D718DA685B785558578
:100CB00038E020E0CB010197F1F7822F90E0959585
:100CC0008795282F4C91452309F02068315091F7E2
:100CD000868D81FD20958091950290E001968F731D
:100CE000992730919402381749F0A0919502B0E00D
:100CF000AC5ABD4F2C938093950203C0868D8160C2
:100D0000868F828D938D0197F1F7A389B4899C9189
:100D10008589892B8C93FF91EF91BF91AF919F9122
:100D20008F917F916F915F914F913F912F910F9094
:100D30000BBE0F900FBE0F901F9018951092A4023B
:100D40001092A30288EE93E0A0E0B0E08093A502A9
:100D50009093A602A093A702B093A8022AE032E0E3
:100D60003093A2022093A10225EC30E03093AE0232
:100D70002093AD0224EC30E03093B0022093AF0218
:100D800020EC30E03093B2022093B10221EC30E04D
:100D90003093B4022093B30222EC30E03093B602D9
:100DA0002093B50226EC30E03093B8022093B702CE
:100DB0001092BA021092BB021092BC021092BD02B5
:100DC00010924A031092490380934B0390934C0373
:100DD000A0934D03B0934E038CE192E090934803AF
:100DE0008093470310925E0310925D03109260039C
:100DF00010925F03109262031092610310926403D9
:100E000010926303609165036E7F6D7F609365034D
:100E10006695617081E068278AE07CDB61E08AE0AA
:100E2000F5DBE0E1F2E0E491E0935703EAECF1E076
:100E3000E491F0E0EE0FFF1FE457FE4F859194918F
:100E4000909359038093580360E08BE0DFDB80913F
:100E5000650381FD03C061E08BE05CDB8BE0809388
:100E60005303E1E1F2E0E491E0935403EBECF1E0B1
:100E7000E491F0E0EE0FFF1FEA55FE4F859194914B
:100E800090935603809355031092400310923F03B2
:100E900010924203109241031092440310924303B4
:100EA00040E050E062E572E08FE393E095CDCF93B0
:100EB000DF93CDB7DEB76F970FB6F894DEBF0FBEE6
:100EC000CDBF789484B5826084BD84B5816084BDD3
:100ED00085B5826085BD85B5816085BD80916E00D8
:100EE000816080936E001092810080918100826009
:100EF0008093810080918100816080938100809146
:100F000080008160809380008091B1008460809334
:100F1000B1008091B00081608093B0008091910019
:100F20008260809391008091910081608093910014
:100F3000809190008160809390008091A1008260F8
:100F40008093A1008091A10081608093A100809195
:100F5000A00081608093A000809121018260809335
:100F600021018091210181608093210180912001E4
:100F700081608093200180917A00846080937A0060
:100F800080917A00826080937A0080917A008160FB
:100F900080937A0080917A00806880937A00109222
:100FA000C10061E083E032DBE091B102F091B20276
:100FB00082E08083E091AD02F091AE021082E09178
:100FC000AF02F091B0028FEC80831092B902E091F1
:100FD000B502F091B60286E08083E091B302F09111
:100FE000B402808180618083E091B302F091B40209
:100FF000808188608083E091B302F091B4028081A7
:1010000080688083E091B302F091B40280818F7D8B
:101010008083109262031092610310926003109219
:101020005F0310925E0310925D038DE991E090934F
:101030006403809363038091530396EF980F943079
:1010400048F02EEC280F243028F022EC280F28300E
:1010500008F06EC02DEB30E030935E0320935D030B
:101060002BE931E03093600320935F032CE231E001
:101070003093620320936103943060F02EEC280FCC
:10108000243040F022EC280F283008F4F4C0A0E00F
:10109000B0E0F3C0A8E6B0E0E8E6F0E020819430EC
:1010A00018F08E53883010F081E001C084E0822B6C
:1010B0008C938091530396EF980F943058F02EEC58
:1010C000280F243038F022EC280F283030F020E0B0
:1010D00030E005C02BE630E002C02DE630E0309372
:1010E0005B0320935A03943010F49AEF0BC08233C1
:1010F00081F0833381F0843381F092EC980F983043
:1011000070F492EC980F81E001C0880F9A95EAF78D
:1011100007C088E005C084E003C082E001C081E030
:1011200080935C0380916303909164030197F1F7CE
:101130008091610390916203892B19F1809196024D
:101140009091970223E087349207D9F0009709F035
:1011500003DC809165038E7F809365031092950276
:101160001092940287E493E0909397028093960202
:10117000E0915A03F0915B03908180915C03892B8D
:10118000808345E250E06AE272E081EA92E091D821
:1011900042E050E060E572E081EA92E08AD80CE13A
:1011A00012E08091490390914A039C838B83809144
:1011B0004B0390914C03A0914D03B0914E038D834E
:1011C0009E83AF83B88780914F0390915003A09185
:1011D0005103B091520389879A87AB87BC871A83E2
:1011E0000983809153038D87809154038E8780916A
:1011F000550390915603988B8F8780915703898B65
:1012000080915803909159039B8B8A8B80915A034C
:1012100090915B039D8B8C8B80915C038E8B809176
:101220005D0390915E03988F8F8B80915F03909107
:1012300060039A8F898F80916103909162039C8FE4
:101240008B8F80916303909164039E8F8D8F90911B
:1012500065038F8D90FB80F99695917090FB81F9D5
:101260008F8FCE010196E0DB1A830983CE010196B0
:1012700073DB18D996CFA8E6B0E0283008F40CCF7D
:10128000E0E0F0E00BCF80913F039091400308D164
:101290008CE192E0909348038093470387E493E0C6
:1012A0005BCB1F93FC0199278827BC01E89411911F
:1012B0001032E9F3193010F01E30C8F31B3249F038
:1012C0001D3241F4689405C012D0610F711D811D5B
:1012D000911D119110531A30B8F33EF490958095FA
:1012E000709561957F4F8F4F9F4F1F910895592F94
:1012F000482F372F262F660F771F881F991F660FDD
:10130000771F881F991F620F731F841F951F660F19
:10131000771F881F991F089597FB072E16F40094D6
:1013200006D077FD08D013D007FC05D03EF4909589
:1013300081959F4F0895709561957F4F0895EE0FA9
:10134000FF1F881F8BBF0790F691E02D1994AA1BF1
:10135000BB1B51E107C0AA1FBB1FA617B70710F0A0
:10136000A61BB70B881F991F5A95A9F780959095D2
:10137000BC01CD010895CF93DF938230910510F425
:1013800082E090E0E0916803F091690320E030E0B2
:10139000C0E0D0E0309711F14081518148175907E2
:1013A000C0F04817590761F482819381209719F0A2
:1013B0009B838A832BC0909369038093680326C024
:1013C0002115310519F04217530718F49A01BE018F
:1013D000DF01EF010280F381E02DDCCF2115310523
:1013E00009F1281B390B2430310590F412968D91A8
:1013F0009C9113976115710521F0FB019383828302
:1014000004C09093690380936803FD01329644C041
:10141000FD01E20FF31F81939193225031092D9327
:101420003C933AC02091660330916703232B41F42B
:1014300020910202309103023093670320936603E8
:1014400020910002309101022115310541F42DB7A0
:101450003EB74091040250910502241B350BE091E8
:101460006603F0916703E217F307A0F42E1B3F0B0E
:101470002817390778F0AC014E5F5F4F2417350706
:1014800048F04E0F5F1F50936703409366038193AC
:10149000919302C0E0E0F0E0CF01DF91CF91089599
:1014A0000F931F93CF93DF93009709F48CC0FC0137
:1014B000329713821282009168031091690301151B
:1014C000110581F420813181820F931F20916603E1
:1014D000309167032817390779F5F0936703E09394
:1014E000660371C0D80140E050E0AE17BF0750F46A
:1014F00012962D913C911397AD012115310509F1FB
:10150000D901F3CF9D01DA01338322836081718198
:10151000860F971F8217930769F4EC0128813981A0
:10152000260F371F2E5F3F4F318320838A819B8197
:1015300093838283452B29F4F0936903E093680336
:1015400042C01396FC93EE931297ED014991599185
:101550009E01240F351FE217F30771F480819181FA
:10156000840F951F029611969C938E93828193818E
:1015700013969C938E931297E0E0F0E0D8011296B8
:101580008D919C911397009719F0F8018C01F6CF7B
:101590008D919C9198012E5F3F4F820F931F209158
:1015A0006603309167032817390769F4309729F4E7
:1015B000109269031092680302C013821282109382
:1015C000670300936603DF91CF911F910F910895F8
:1015D0006F927F928F929F92AF92BF92CF92DF9243
:1015E000EF92FF920F931F93CF93DF93EC0100973D
:1015F00081F4CB01DF91CF911F910F91FF90EF907C
:10160000DF90CF90BF90AF909F908F907F906F9022
:10161000B2CEFC01E60FF71F9C0122503109E21700
:10162000F30708F4A8C0D9010D911C911197061772
:101630001707A8F00530110508F49BC0C8010497EE
:101640008617970708F495C002501109061B170B5F
:10165000019311936D937C93CF0122DF8AC05B01CC
:10166000A01AB10A4C01800E911EA0916803B0919E
:10167000690340E050E0E12CF12C109709F44AC0D6
:10168000A815B905D1F56D907C901197630182E0A2
:10169000C80ED11CCA14DB0480F1A3014A195B09EE
:1016A0006A0182E0C80ED11C1296BC901297139664
:1016B000AC91B5E0CB16D10440F0B282A383518344
:1016C0004083D9016D937C930AC00E5F1F4FC30105
:1016D000800F911FF90191838083EB2DFA2FE11484
:1016E000F10431F0D7011396FC93EE93129741C0A9
:1016F000F0936903E09368033CC08D919C9111972E
:101700004817590708F4AC017D0112960D90BC9161
:10171000A02DB3CF8091660390916703881599053A
:10172000E1F446175707C8F4809100029091010236
:10173000009741F48DB79EB7409104025091050285
:10174000841B950BE817F907B0F4F0936703E09357
:101750006603F901718360830CC0CB010CDE7C0150
:10176000009749F0A801BE011BD0CE0199DEC70148
:1017700004C0CE0102C080E090E0DF91CF911F91C4
:101780000F91FF90EF90DF90CF90BF90AF909F9020
:101790008F907F906F90089581E090E0F89410C052
:1017A000FB01DC0102C001900D9241505040D8F77E
:1017B0000895FB01DC0101900D920020E1F70895EE
:1017C00011E0C7E2D1E000E005C0802FFE01B7DDE7
:1017D0002196011DC832D10780E00807B1F7F894BF
:0217E000FFCF39
:1017E20000006A03800000000000EB01590184013F
:1017F2003102B5019301A701000000002104590143
:10180200C304200475048B04080456656C6F636975
:10181200616464206D61726361646120706F722023
:101822006C612061706C6963616369EFBFBD6E00BA
:041832000D0A00009B
:00000001FF
