:1000000027C1000053C1000051C100004FC10000D2
:100010004DC100004BC1000049C1000047C10000B4
:1000200045C10000CBC40000C9C40000C7C4000023
:100030003DC100003BC1000039C1000037C10000D4
:1000400035C1000033C1000031C100002FC10000E4
:100050002DC100002BC1000029C1000065C40000B3
:1000600025C100002BC4000000C400001FC1000017
:100070001DC100001BC1000019C1000017C1000014
:1000800015C1000013C1000011C100000FC1000024
:100090000DC100000BC1000009C1000007C1000034
:1000A00005C1000003C1000001C10000FFC0000045
:1000B000FDC00000FBC00000F9C00000F7C0000058
:1000C000F5C00000F3C00000F1C00000EFC0000068
:1000D000EDC00000EBC00000E9C00000E7C0000078
:1000E000E5C00000B602B902A802AC02B002F002FC
:1000F000BD02C102C702CB02CF02D502D902DD0286
:10010000F002E302E702EB024E08530858086208C7
:100110006C08E50876087E08860890089A08A40806
:10012000B308BD08E508C708D108DB0800002100B6
:10013000240027002A002D003000330001010000B8
:10014000040107010A0100000A0B02090C0D0E0848
:100150000703040100000000000000000000000090
:10016000000000000000000000000000000000008F
:10017000000012111000000000000000000000004C
:10018000000000000000000000000000000022004D
:10019000250028002B002E00310034000201000051
:1001A000050108010B0100002000230026002900A2
:1001B0002C002F003200000100000301060109019C
:1001C00005050505070508080808020202020A0AD3
:1001D00008080404040401010101010101010303F1
:1001E000030303030303040707070C0C0C0C0C0C9C
:1001F0000C0C0202020206060606060606060B0B99
:100200000B0B0B0B0B0B01021020200808102040D9
:1002100010204080020102010804020101020408CA
:100220001020408080402010080402018004020158
:1002300080402010080402010804020101020408A1
:100240001020408001020408102040805C05F40862
:1002500011241FBECFEFD1E2DEBFCDBF00E00CBF47
:1002600012E0A0E0B2E0E6ECF2E100E00BBF02C079
:1002700007900D92AA33B107D9F723E0AAE3B2E0C1
:1002800001C01D92A734B207E1F711E0C7E2D1E047
:1002900000E005C021970109802FFE01E3D7C63297
:1002A000D10780E00807B1F7AED4FCC7A9CECF9242
:1002B000DF92EF92FF920F931F93CF93DF936C0126
:1002C0007A018B01C0E0D0E0CE15DF0589F0D801BE
:1002D0006D918D01D601ED91FC910190F081E02DA1
:1002E000C6011995892B11F47E0102C02196ECCF2D
:1002F000C701DF91CF911F910F91FF90EF90DF9099
:10030000CF900895FC01538D448D252F30E0842F2C
:1003100090E0821B930B541710F0CF96089501972D
:100320000895FC01918D828D981761F0828DDF0117
:10033000A80FB11D5D968C91928D9F5F9F73928FD8
:1003400090E008958FEF9FEF0895FC01918D828DCD
:10035000981731F0828DE80FF11D858D90E008959A
:100360008FEF9FEF0895FC01918D228D892F90E0F2
:10037000805C9F4F821B91098F73992708958BE8AA
:1003800092E0F1DF21E0892B09F420E0822F08952B
:10039000FC01848DDF01A80FB11DA35ABF4F2C9122
:1003A000848D90E001968F739927848FA689B789F1
:1003B0002C93A089B1898C9180648C93938D848DCA
:1003C000981306C00288F389E02D80818F7D808399
:1003D0000895EF92FF920F931F93CF93DF93EC0159
:1003E00081E0888F9B8D8C8D981305C0E889F989F1
:1003F000808185FD23C0F62E0B8D10E00F5F1F4F0F
:100400000F731127E02E8C8DE8120BC00FB607FC7E
:10041000FACFE889F989808185FFF5CFCE01B8DF71
:10042000F2CF8B8DFE01E80FF11DE35AFF4FF082F2
:100430000B8FEA89FB898081806207C0EE89FF8982
:100440006083E889F98980818064808381E090E01D
:10045000DF91CF911F910F91FF90EF900895CF936F
:10046000DF93EC01888D8823C1F0EA89FB898081C4
:1004700085FD05C0A889B9898C9186FD0EC00FB68F
:1004800007FCF5CF808185FFF2CFA889B9898C91CF
:1004900085FFEDCFCE017CDFE8CFDF91CF910895CE
:1004A00080E090E0892B19F06ADF811125C080E09F
:1004B00090E0892B41F080E090E0892B21F00E94B0
:1004C000000081111CC080E090E0892B41F080E0A9
:1004D00090E0892B21F00E940000811113C080E080
:1004E00090E0892BA1F080E090E0892B81F00E94C0
:1004F000000081110AC008950E940000D8CF0E9418
:100500000000E1CF0E940000EACF0C9400000895A3
:10051000362F90E0FC01EA5BFE4F4491FC01EA5F5C
:10052000FD4F2491FC01E054FE4F9491992309F46E
:100530006AC0442309F454C050E0FA013197E23113
:10054000F10508F04DC08827EE58FF4F8F4F8AC63F
:10055000809180008F7707C0809180008F7D03C0DD
:1005600080918000877F809380003AC084B58F7728
:1005700002C084B58F7D84BD33C08091B0008F7779
:1005800003C08091B0008F7D8093B00029C080911E
:1005900090008F7707C0809190008F7D03C080917D
:1005A0009000877F809390001BC08091A0008F7780
:1005B00007C08091A0008F7D03C08091A000877F3D
:1005C0008093A0000DC0809120018F7707C080919B
:1005D00020018F7D03C080912001877F80932001BF
:1005E000E92FF0E0EE0FFF1FE457FE4FA591B49105
:1005F0008FB7F894EC91311103C020952E2301C0E0
:100600002E2B2C938FBF0895CF93DF9390E0FC01A6
:10061000EA5FFD4F2491FC01E054FE4F8491882352
:1006200061F190E0880F991FFC01E45DFE4FC591D8
:10063000D491FC01E457FE4FA591B491611109C01A
:100640009FB7F8948881209582238883EC912E238C
:100650000BC0623061F49FB7F8943881822F809587
:1006600083238883EC912E2B2C939FBF06C08FB7DA
:10067000F894E8812E2B28838FBFDF91CF910895C6
:100680003FB7F89480917F0290918002A0918102FF
:10069000B091820226B5A89B05C02F3F19F00196A4
:1006A000A11DB11D3FBFBA2FA92F982F8827820FF8
:1006B000911DA11DB11DBC01CD0142E0660F771F48
:1006C000881F991F4A95D1F708952091850230918E
:1006D00086022817390771F4909183028091840271
:1006E000981741F0E0918302F0E0E65CFD4F8081D5
:1006F00090E008958FEF9FEF089508951F93CF9393
:10070000DF93DC015C962D913C915D9721153105BD
:1007100039F481E090E013969C938E9312973DC03C
:100720005196ED91FC91529750969C915097892F3C
:1007300080951FB75E964C915E9741FB772770F9C5
:1007400041FD6095F8944081772311F0492B01C059
:1007500048234083E9012197F1F748E0508160FF89
:1007600002C0592B01C058235083E9012197F1F7AA
:100770006695415099F7772321F0908189238083F2
:1007800003C08081982B90831FBF5C968D919C91B4
:100790005D970197F1F721E030E0C901DF91CF913A
:1007A0001F910895209185023091860228173907FC
:1007B00061F4809184022091830290E0805C9F4FDD
:1007C000821B910960E470E018C580E090E0089514
:1007D000209185023091860228173907B9F490914B
:1007E000830280918402981789F0E0918302F0E0FF
:1007F000E65CFD4F80812091830230E02F5F3F4F08
:100800002F7333272093830290E008958FEF9FEF9B
:100810000895E0918502F0918602E817F90769F4DE
:10082000A389B4899C918589809589238C931092A2
:1008300086021092850281E0089580E0089508956F
:1008400080E090E00895009761F0FC0101900020A5
:10085000E9F73197AF01481B590BBC018BE892E0D7
:1008600026CD80E090E0089519D51F920F920FB623
:100870000F9211240BB60F922F933F934F935F93D8
:100880006F937F938F939F93AF93BF93EF93FF9358
:100890008BE892E07DDDFF91EF91BF91AF919F9149
:1008A0008F917F916F915F914F913F912F910F9019
:1008B0000BBE0F900FBE0F901F9018951F920F92B6
:1008C0000FB60F9211240BB60F922F938F939F9315
:1008D000EF93FF93E0919B02F0919C028081E09165
:1008E000A102F091A20282FD12C090818091A40227
:1008F0008F5F8F732091A502821751F0E091A402BF
:10090000F0E0E557FD4F958F8093A40201C08081F0
:10091000FF91EF919F918F912F910F900BBE0F90B0
:100920000FBE0F901F9018951F920F920FB60F9247
:1009300011242F933F938F939F93AF93BF938091F5
:100940007B0290917C02A0917D02B0917E02309159
:100950007A0223E0230F2D3720F40196A11DB11D4B
:1009600005C026E8230F0296A11DB11D20937A022F
:1009700080937B0290937C02A0937D02B0937E02D1
:1009800080917F0290918002A0918102B0918202B9
:100990000196A11DB11D80937F0290938002A093C8
:1009A0008102B0938202BF91AF919F918F913F914D
:1009B0002F910F900FBE0F901F9018951F920F92BE
:1009C0000FB60F9211240BB60F922F933F934F93B4
:1009D0005F936F937F938F939F93AF93BF93EF93A7
:1009E000FF93E0918502F0918602309709F451C09F
:1009F000968DA685B785858591FF04C09C91892336
:100A000029F447C09C91892309F043C0A389B48984
:100A10009C918589809589238C93868997890197F4
:100A2000F1F7608D718DA685B785558538E020E09A
:100A3000CB010197F1F7822F90E095958795282FAC
:100A40004C91452309F02068315091F7868D81FD46
:100A500020958091840290E001968F7399273091C0
:100A60008302381749F0A0918402B0E0A65CBD4F24
:100A70002C938093840203C0868D8160868F828D43
:100A8000938D0197F1F7A389B4899C918589892B6E
:100A90008C93FF91EF91BF91AF919F918F917F9137
:100AA0006F915F914F913F912F910F900BBE0F90DF
:100AB0000FBE0F901F90189510928E0210928D020B
:100AC00088EE93E0A0E0B0E080938F0290939002D4
:100AD000A0939102B093920226E032E030938C0210
:100AE00020938B0225EC30E03093980220939702FC
:100AF00024EC30E030939A022093990220EC30E00D
:100B000030939C0220939B0221EC30E030939E02B4
:100B100020939D0222EC30E03093A00220939F02AC
:100B200026EC30E03093A2022093A1021092A4029E
:100B30001092A5021092A6021092A70210922B0307
:100B400010922A0380932C0390932D03A0932E03DD
:100B5000B0932F0388E192E09093290380932803B8
:100B600010923F0310923E031092410310924003F3
:100B700010924303109242031092450310924403D3
:100B8000609146036E7F6D7F60934603669561704A
:100B900081E068278AE0BCDC61E08AE035DDE0E1E5
:100BA000F2E0E491E0933803EAECF1E0E491F0E064
:100BB000EE0FFF1FE457FE4F8591949190933A03F7
:100BC0008093390360E08BE01FDD8091460381FD57
:100BD00003C061E08BE09CDC8BE080933403E1E1B7
:100BE000F2E0E491E0933503EBECF1E0E491F0E026
:100BF000EE0FFF1FEA55FE4F8591949190933703B6
:100C0000809336030895CF93DF93CDB7DEB7A197D6
:100C10000FB6F894DEBF0FBECDBF789484B5826066
:100C200084BD84B5816084BD85B5826085BD85B590
:100C3000816085BD80916E00816080936E0010920E
:100C40008100809181008260809381008091810089
:100C5000816080938100809180008160809380001A
:100C60008091B10084608093B1008091B000816078
:100C70008093B00080919100826080939100809178
:100C800091008160809391008091900081608093B9
:100C900090008091A10082608093A1008091A100CA
:100CA00081608093A1008091A00081608093A0006A
:100CB00080912101826080932101809121018160D6
:100CC0008093210180912001816080932001809197
:100CD0007A00846080937A0080917A0082608093A9
:100CE0007A0080917A00816080937A0080917A0006
:100CF000806880937A001092C10061E089E084DC12
:100D0000E0919B02F0919C0282E08083E091970247
:100D1000F09198021082E0919902F0919A028FEC82
:100D200080831092A302E0919F02F091A00286E0DE
:100D30008083E0919D02F0919E028081806180839A
:100D4000E0919D02F0919E02808188608083E09115
:100D50009D02F0919E02808180688083E0919D02D7
:100D6000F0919E0280818F7D8083109243031092C8
:100D70004203109241031092400310923F031092DD
:100D80003E038DE991E09093450380934403809165
:100D9000340396EF980F943048F02EEC280F24304F
:100DA00028F022EC280F283008F06EC02DEB30E040
:100DB00030933F0320933E032BE931E0309341030E
:100DC000209340032CE231E030934303209342030D
:100DD000943060F02EEC280F243040F022EC280FE5
:100DE000283008F4F9C1A0E0B0E0F8C1A8E6B0E00E
:100DF000E8E6F0E02081943018F08E53883010F04F
:100E000081E001C084E0822B8C938091340396EFC3
:100E1000980F943058F02EEC280F243038F022EC44
:100E2000280F283030F020E030E005C02BE630E01D
:100E300002C02DE630E030933C0320933B03943016
:100E400010F49AEF0BC0823381F0833381F0843346
:100E500081F092EC980F983070F492EC980F81E04A
:100E600001C0880F9A95EAF707C088E005C084E0C2
:100E700003C082E001C081E080933D038091440380
:100E8000909145030197F1F78091420390914303BC
:100E9000892B19F1809185029091860223E0883296
:100EA0009207D9F0009709F0B4DC809146038E7F59
:100EB00080934603109284021092830288E293E0AA
:100EC0009093860280938502E0913B03F0913C036E
:100ED000908180913D03892B808386E292E0B3DC90
:100EE00087E392E0B0DC8AE0482E512C612C712C13
:100EF0009FE4292E91E0392E88E293E053DC892B80
:100F000009F4ABC088E293E063DCBC016053710973
:100F10002091890230918A026131710509F44EC035
:100F20008091000290910102869FA001879F500D41
:100F3000969F500D1124240F351F30938A02209361
:100F400089026AE070E059D1709301026093000257
:100F500097DB6B017C018AE090E0A0E0B0E04C01FF
:100F60005D018EDBDC01CB018C199D09AE09BF0947
:100F7000883E9340A105B10588F081E0881A910868
:100F8000A108B10898EEC90E93E0D91EE11CF11C2E
:100F900081149104A104B10421F706C0D501C40154
:100FA00089288A288B28D9F6809187029091880217
:100FB000019690938802809387029ECF4901330F58
:100FC000AA08BB08B7FE25C0E0918B02F0918C0205
:100FD0000190F081E02D6DE28BE892E019952227D7
:100FE0003327A901281939094A095B0919A28E0179
:100FF0000F5D1F4FCA01B901A301920111D1605DBC
:10100000F80162938F01211531054105510591F7D2
:1010100014C0A501940119A28E010F5D1F4FCA01D2
:10102000B901A3019201FCD0605DF80162938F01C8
:10103000211531054105510591F7C80104DC87E30D
:1010400092E001DC10928A021092890281E090E025
:1010500090930102809300024FCF0091890210917A
:101060008A0261E089E0D0DA0115110511F460E02F
:1010700004C00F3F110521F461E089E049DAAAC0FC
:10108000F101849190E0FC013197E231F10508F023
:101090009CC08827EC57FF4F8F4FE4C084B5806811
:1010A00084BD07BD97C084B5806284BD08BD92C071
:1010B0008091800080688093800010938900009365
:1010C000880088C0809180008062809380001093A7
:1010D0008B0000938A007EC080918000886080939E
:1010E000800010938D0000938C0074C08091B0003C
:1010F00080688093B0000093B3006CC08091B00012
:1011000080628093B0000093B40064C0809190002E
:1011100080688093900010939900009398005AC0C3
:101120008091900080628093900010939B000093C8
:101130009A0050C080919000886080939000109336
:101140009D0000939C0046C08091A0008068809321
:10115000A0008091A0008F7B8093A0001093A90035
:101160000093A80037C08091A00080628093A00007
:101170001093AB000093AA002DC08091A00088605E
:101180008093A0001093AD000093AC0023C0809129
:101190002001806880932001109329010093280189
:1011A00019C08091200180628093200110932B014F
:1011B00000932A010FC08091200188608093200154
:1011C00010932D0100932C0105C0003811050CF07F
:1011D00053CF4DCF65D990CEA8E6B0E0283008F4C3
:1011E00007CEE0E0F0E006CE88E192E0909329039C
:1011F0008093280388E293E00CCB97FB072E16F42C
:10120000009406D077FD08D035D007FC05D03EF419
:10121000909581959F4F0895709561957F4F0895A2
:10122000A1E21A2EAA1BBB1BFD010DC0AA1FBB1FEA
:10123000EE1FFF1FA217B307E407F50720F0A21B5C
:10124000B30BE40BF50B661F771F881F991F1A94C9
:1012500069F760957095809590959B01AC01BD01F3
:10126000CF010895EE0FFF1F881F8BBF0790F691E7
:10127000E02D1994AA1BBB1B51E107C0AA1FBB1F7D
:10128000A617B70710F0A61BB70B881F991F5A9512
:10129000A9F780959095BC01CD01089581E090E07B
:1012A000F89400C011E0C7E2D1E000E005C0802F53
:1012B000FE01D8DF2196011DC832D10780E0080762
:0612C000B1F7F894FFCF26
:1012C600640000000000E901570182012F02B3010A
:1012D6009101A501000000007E03570120047D0353
:1012E600D203E80365034D6F746F722076656C6FE9
:0A12F60063696461643A000D0A00A8
:00000001FF
