:1000000027C1000055C1000053C1000051C10000CC
:100010004FC100004DC100004BC1000049C10000AC
:1000200047C10000F6C40000F4C40000F2C40000A0
:100030003FC100003DC100003BC1000039C10000CC
:1000400037C1000035C1000033C1000031C10000DC
:100050002FC100002DC100002BC1000031C40000E1
:1000600027C10000A0C4000075C4000021C1000029
:100070001FC100001DC100001BC1000019C100000C
:1000800017C1000015C1000013C1000011C100001C
:100090000FC100000DC100000BC1000009C100002C
:1000A00007C1000005C1000003C1000001C100003C
:1000B000FFC00000FDC00000FBC00000F9C0000050
:1000C000F7C00000F5C00000F3C00000F1C0000060
:1000D000EFC00000EDC00000EBC00000E9C0000070
:1000E000E7C00000B802BB02AA02AE02B202F202EE
:1000F000BF02C302C902CD02D102D702DB02DF0276
:10010000F202E502E902ED025F0864086908750879
:1001100081080E098D0895089D08A908B508C10831
:10012000D208DE080E09EA08F608020900002100DC
:10013000240027002A002D003000330001010000B8
:10014000040107010A0100000A0B02090C0D0E0848
:100150000703040100000000000000000000000090
:10016000000000000000000000000000000000008F
:10017000000012111000000000000000000000004C
:10018000000000000000000000000000000022004D
:10019000250028002B002E00310034000201000051
:1001A000050108010B0100002000230026002900A2
:1001B0002C002F003200000100000301060109019C
:1001C00005050505070508080808020202020A0AD3
:1001D00008080404040401010101010101010303F1
:1001E000030303030303040707070C0C0C0C0C0C9C
:1001F0000C0C0202020206060606060606060B0B99
:100200000B0B0B0B0B0B01021020200808102040D9
:1002100010204080020102010804020101020408CA
:100220001020408080402010080402018004020158
:1002300080402010080402010804020101020408A1
:100240001020408001020408102040808705260904
:1002500011241FBECFEFD1E2DEBFCDBF00E00CBF47
:1002600023E0A4E5B2E001C01D92A736B207E1F792
:1002700012E0A0E0B2E0ECEEF7E100E00BBF02C05C
:1002800007900D92A435B107D9F711E0C7E2D1E08C
:1002900000E006C021970109802FFE010E94A409F9
:1002A000C632D10780E00807A9F7EAD40C94E50B21
:1002B000A7CECF92DF92EF92FF920F931F93CF932F
:1002C000DF936C017A018B01C0E0D0E0CE15DF0531
:1002D00089F0D8016D918D01D601ED91FC910190CD
:1002E000F081E02DC6011995892B11F47E0102C021
:1002F0002196ECCFC701DF91CF911F910F91FF9015
:10030000EF90DF90CF900895FC01538D448D252F01
:1003100030E0842F90E0821B930B541710F0CF969F
:10032000089501970895FC01918D828D981761F0D1
:10033000828DDF01A80FB11D5D968C91928D9F5F1C
:100340009F73928F90E008958FEF9FEF0895FC01C7
:10035000918D828D981731F0828DE80FF11D858D7A
:1003600090E008958FEF9FEF0895FC01918D228D0D
:10037000892F90E0805C9F4F821B91098F73992792
:10038000089581EA92E0F1DF21E0892B09F420E071
:10039000822F0895FC01848DDF01A80FB11DA35A9F
:1003A000BF4F2C91848D90E001968F739927848F95
:1003B000A689B7892C93A089B1898C9180648C938C
:1003C000938D848D981306C00288F389E02D808177
:1003D0008F7D80830895EF92FF920F931F93CF93A9
:1003E000DF93EC0181E0888F9B8D8C8D981305C085
:1003F000E889F989808185FD23C0F62E0B8D10E0F8
:100400000F5F1F4F0F731127E02E8C8DE8120BC06A
:100410000FB607FCFACFE889F989808185FFF5CF0F
:10042000CE01B8DFF2CF8B8DFE01E80FF11DE35A4C
:10043000FF4FF0820B8FEA89FB898081806207C0C1
:10044000EE89FF896083E889F989808180648083EF
:1004500081E090E0DF91CF911F910F91FF90EF909D
:100460000895CF93DF93EC01888D8823C1F0EA894A
:10047000FB89808185FD05C0A889B9898C9186FD9D
:100480000EC00FB607FCF5CF808185FFF2CFA8899B
:10049000B9898C9185FFEDCFCE017CDFE8CFDF916C
:1004A000CF91089580E090E0892B19F06ADF8111E7
:1004B00025C080E090E0892B41F080E090E0892B1E
:1004C00021F00E94000081111CC080E090E0892B87
:1004D00041F080E090E0892B21F00E940000811122
:1004E00013C080E090E0892BA1F080E090E0892BA0
:1004F00081F00E94000081110AC008950E9400004E
:10050000D8CF0E940000E1CF0E940000EACF0C94F7
:1005100000000895362F90E0FC01EA5BFE4F449105
:10052000FC01EA5FFD4F2491FC01E054FE4F9491E1
:10053000992309F46AC0442309F454C050E0FA0135
:100540003197E231F10508F04DC08827EE58FF4F92
:100550008F4FFAC6809180008F7707C0809180000E
:100560008F7D03C080918000877F809380003AC098
:1005700084B58F7702C084B58F7D84BD33C08091F0
:10058000B0008F7703C08091B0008F7D8093B00062
:1005900029C0809190008F7707C0809190008F7D57
:1005A00003C080919000877F809390001BC0809152
:1005B000A0008F7707C08091A0008F7D03C080913D
:1005C000A000877F8093A0000DC0809120018F77CD
:1005D00007C0809120018F7D03C080912001877F1B
:1005E00080932001E92FF0E0EE0FFF1FE457FE4F4C
:1005F000A591B4918FB7F894EC91311103C0209577
:100600002E2301C02E2B2C938FBF0895CF93DF9301
:1006100090E0FC01EA5FFD4F2491FC01E054FE4FA5
:100620008491882361F190E0880F991FFC01E45DBB
:10063000FE4FC591D491FC01E457FE4FA591B491B2
:10064000611109C09FB7F89488812095822388831F
:10065000EC912E230BC0623061F49FB7F89438817F
:10066000822F809583238883EC912E2B2C939FBF20
:1006700006C08FB7F894E8812E2B28838FBFDF91B7
:10068000CF9108952091960230919702281739074B
:1006900071F49091940280919502981741F0E09145
:1006A0009402F0E0EC5AFD4F808190E008958FEFC6
:1006B0009FEF089508951F93CF93DF93DC015C961D
:1006C0002D913C915D972115310539F481E090E041
:1006D00013969C938E9312973DC05196ED91FC9189
:1006E000529750969C915097892F80951FB75E9690
:1006F0004C915E9741FB772770F941FD6095F89426
:100700004081772311F0492B01C048234083E90140
:100710002197F1F748E0508160FF02C0592B01C0DA
:1007200058235083E9012197F1F76695415099F7D5
:10073000772321F090818923808303C08081982BC7
:1007400090831FBF5C968D919C915D970197F1F707
:1007500021E030E0C901DF91CF911F9108952091F0
:100760009602309197022817390761F4809195021B
:100770002091940290E0805C9F4F821B910960E47D
:1007800070E0ADC580E090E0089520919602309130
:10079000970228173907B9F4909194028091950235
:1007A000981789F0E0919402F0E0EC5AFD4F8081B7
:1007B0002091940230E02F5F3F4F2F733327209317
:1007C000940290E008958FEF9FEF0895E0919602D4
:1007D000F0919702E817F90769F4A389B4899C910D
:1007E0008589809589238C931092970210929602A6
:1007F00081E0089580E00895089580E090E00895F4
:10080000009761F0FC0101900020E9F73197AF01FA
:10081000481B590BBC0181EA92E04BCD80E090E08F
:1008200008950F931F93CF93DF93EC0188819981F3
:10083000009729F02A813B812617370780F48B0126
:100840006F5F7F4FCAD6009761F0998388831B83BF
:100850000A832C813D81232B11F4FC01108281E05D
:1008600001C080E0DF91CF911F910F910895EF9229
:10087000FF920F931F93CF93DF93EC017B018A01CB
:10088000BA01CFDF2881398181110CC021153105D2
:1008900011F0C9010AD6198218821D821C821B829E
:1008A0001A8205C01D830C83B701C90187D7CE0109
:1008B000DF91CF911F910F91FF90EF90089571D725
:1008C0001F920F920FB60F9211242F933F938F9385
:1008D0009F93AF93BF9380919D0290919E02A091B0
:1008E0009F02B091A00230919C0223E0230F2D378C
:1008F00020F40196A11DB11D05C026E8230F029624
:10090000A11DB11D20939C0280939D0290939E0295
:10091000A0939F02B093A0028091980290919902B7
:10092000A0919A02B0919B020196A11DB11D8093E6
:10093000980290939902A0939A02B0939B02BF9160
:10094000AF919F918F913F912F910F900FBE0F907C
:100950001F9018951F920F920FB60F9211240BB68D
:100960000F922F933F934F935F936F937F938F9348
:100970009F93AF93BF93EF93FF9381EA92E00ADDD9
:10098000FF91EF91BF91AF919F918F917F916F9167
:100990005F914F913F912F910F900BBE0F900FBE23
:1009A0000F901F9018951F920F920FB60F9211245F
:1009B0000BB60F922F938F939F93EF93FF93E0913A
:1009C000B102F091B2028081E091B702F091B802D9
:1009D00082FD12C090818091BA028F5F8F73209147
:1009E000BB02821751F0E091BA02F0E0EF55FD4FE3
:1009F000958F8093BA0201C08081FF91EF919F9102
:100A00008F912F910F900BBE0F900FBE0F901F90E4
:100A100018951F920F920FB60F9211240BB60F92DA
:100A20002F933F934F935F936F937F938F939F93F6
:100A3000AF93BF93EF93FF93E0919602F0919702EB
:100A4000309709F451C0968DA685B785858591FFAD
:100A500004C09C91892329F447C09C91892309F003
:100A600043C0A389B4899C918589809589238C93FF
:100A7000868997890197F1F7608D718DA685B78575
:100A8000558538E020E0CB010197F1F7822F90E007
:100A900095958795282F4C91452309F02068315072
:100AA00091F7868D81FD20958091950290E00196C9
:100AB0008F73992730919402381749F0A0919502CD
:100AC000B0E0AC5ABD4F2C938093950203C0868D45
:100AD0008160868F828D938D0197F1F7A389B48908
:100AE0009C918589892B8C93FF91EF91BF91AF9158
:100AF0009F918F917F916F915F914F913F912F9136
:100B00000F900BBE0F900FBE0F901F901895109274
:100B1000A4021092A30288EE93E0A0E0B0E08093DC
:100B2000A5029093A602A093A702B093A8022AE080
:100B300032E03093A2022093A10225EC30E0309302
:100B4000AE022093AD0224EC30E03093B00220934B
:100B5000AF0220EC30E03093B2022093B10221ECDE
:100B600030E03093B4022093B30222EC30E03093B3
:100B7000B6022093B50226EC30E03093B802209301
:100B8000B7021092BA021092BB021092BC021092ED
:100B9000BD0210924703109246038093480390933E
:100BA0004903A0934A03B0934B038CE192E09093E6
:100BB00045038093440310925B0310925A031092F2
:100BC0005D0310925C0310925F0310925E0310921B
:100BD000610310926003609162036E7F6D7F60938A
:100BE00062036695617081E068278AE093DC61E0CA
:100BF0008AE00CDDE0E1F2E0E491E0935403EAECFA
:100C0000F1E0E491F0E0EE0FFF1FE457FE4F859115
:100C10009491909356038093550360E08BE0F6DC4B
:100C20008091620381FD03C061E08BE073DC8BE0A7
:100C300080935003E1E1F2E0E491E0935103EBECA7
:100C4000F1E0E491F0E0EE0FFF1FEA55FE4F8591D1
:100C50009491909353038093520310923F03109208
:100C60003E031092410310924003109243031092EE
:100C7000420340E050E062E572E08EE393E0F7CD9E
:100C8000CF93DF93CDB7DEB7A2970FB6F894DEBF50
:100C90000FBECDBF789484B5826084BD84B5816079
:100CA00084BD85B5826085BD85B5816085BD809137
:100CB0006E00816080936E001092810080918100AF
:100CC00082608093810080918100816080938100A7
:100CD000809180008160809380008091B100846069
:100CE0008093B1008091B00081608093B0008091CA
:100CF0009100826080939100809191008160809347
:100D00009100809190008160809390008091A1007B
:100D100082608093A1008091A10081608093A100F6
:100D20008091A00081608093A00080912101826069
:100D30008093210180912101816080932101809124
:100D4000200181608093200180917A0084608093EB
:100D50007A0080917A00826080937A0080917A0094
:100D6000816080937A0080917A00806880937A0015
:100D70001092C10061E089E049DCE091B102F0919C
:100D8000B20282E08083E091AD02F091AE02108267
:100D9000E091AF02F091B0028FEC80831092B90223
:100DA000E091B502F091B60286E08083E091B30253
:100DB000F091B402808180618083E091B302F09170
:100DC000B402808188608083E091B302F091B40224
:100DD000808180688083E091B302F091B4028081C9
:100DE0008F7D808310925F0310925E0310925D03EB
:100DF00010925C0310925B0310925A038DE991E00C
:100E000090936103809360038091500396EF980F55
:100E1000943048F02EEC280F243028F022EC280FD4
:100E2000283008F06EC02DEB30E030935B03209348
:100E30005A032BE931E030935D0320935C032CE2ED
:100E400031E030935F0320935E03943060F02EEC2A
:100E5000280F243040F022EC280F283008F4EEC18F
:100E6000A0E0B0E0EDC1A8E6B0E0E8E6F0E0208167
:100E7000943018F08E53883010F081E001C084E087
:100E8000822B8C938091500396EF980F943058F0FA
:100E90002EEC280F243038F022EC280F283030F0C8
:100EA00020E030E005C02BE630E002C02DE630E067
:100EB0003093580320935703943010F49AEF0BC0EB
:100EC000823381F0833381F0843381F092EC980F88
:100ED000983070F492EC980F81E001C0880F9A95D9
:100EE000EAF707C088E005C084E003C082E001C0E3
:100EF00081E0809359038091600390916103019791
:100F0000F1F780915E0390915F03892B19F1809135
:100F100096029091970223E084349207D9F00097CB
:100F200009F054DC809162038E7F809362031092FB
:100F300095021092940284E493E090939702809338
:100F40009602E0915703F0915803908180915903E4
:100F5000892B80838AE292E053DC80E592E050DCCA
:100F60008FE4A82E81E0B82E9AE0492E512C612CF6
:100F7000712C84E493E0F3DB892B09F45DC184E4F4
:100F800093E003DC813411F189831A82E0904203FB
:100F9000F09043038FEFE81AF80AB7018EE393E06D
:100FA00040DC882331F320913E0330913F03809150
:100FB000420390914303BE016F5F7F4F820F931FE7
:100FC000FDD3F0924303E0924203D3CF80913E03DE
:100FD00090913F03009751F147D16B017C0197FF3E
:100FE00028C0E091A102F091A2020190F081E02DD1
:100FF0006DE281EA92E0199522273327A9012C1985
:101000003D094E095F0919A2FE01B1967F01CA018F
:10101000B901A301920176D1605DF70162937F016E
:10102000211531054105510591F717C0C12CD12C6F
:101030007601A701960119A2CE0181967C01CA0111
:10104000B901A30192015ED1605DF70162937F0156
:10105000211531054105510591F7C701D1DB80E527
:1010600092E0CEDB80913E0390913F03009719F010
:10107000FBD0162F02C010E070E0E12EF72E61E0E9
:1010800089E07AA3C3DA7AA1E114F10411F460E0F3
:1010900005C0FFEFEF16F10421F461E089E03ADAD0
:1010A000C3C0F501849190E0FC013197E231F10574
:1010B00008F0B4C08827EC57FF4F8F4F45C184B567
:1010C000806884BD17BDB0C084B5806284BD18BD82
:1010D000ABC080918000806880938000812F972F23
:1010E00090938900809388009FC0809180008062E7
:1010F00080938000812F972F90938B0080938A009C
:1011000093C080918000886080938000812F972F0A
:1011100090938D0080938C0087C08091B000806890
:101120008093B0001093B3007FC08091B0008062C4
:101130008093B0001093B40077C0809190008068D5
:1011400080939000812F972F90939900809398001F
:101150006BC080919000806280939000812F972FC8
:1011600090939B0080939A005FC08091900088606C
:1011700080939000812F972F90939D0080939C00E7
:1011800053C08091A00080688093A0008091A0004F
:101190008F7B8093A000812F972F9093A90080933D
:1011A000A80042C08091A00080628093A000812F9F
:1011B000972F9093AB008093AA0036C08091A00037
:1011C00088608093A000812F972F9093AD0080932B
:1011D000AC002AC080912001806880932001812F7B
:1011E000972F90932901809328011EC080912001A0
:1011F000806280932001812F972F90932B01809301
:101200002A0112C080912001886080932001812FE3
:10121000972F90932D0180932C0106C0F0E8EF16D4
:10122000F1040CF03ACF33CF40E050E062E572E0D9
:101230008EE393E01CDB9DCE35D99BCEA8E6B0E0D3
:10124000283008F412CEE0E0F0E011CE80913E03A9
:1012500090913F032AD18CE192E0909345038093D3
:10126000440384E493E0B2CA1F93FC0199278827C2
:10127000BC01E89411911032E9F3193010F01E30DE
:10128000C8F31B3249F01D3241F4689405C012D0F6
:10129000610F711D811D911D119110531A30B8F30A
:1012A0003EF490958095709561957F4F8F4F9F4F3D
:1012B0001F910895592F482F372F262F660F771F1C
:1012C000881F991F660F771F881F991F620F731F52
:1012D000841F951F660F771F881F991F089597FB1E
:1012E000072E16F4009406D077FD08D035D007FC01
:1012F00005D03EF4909581959F4F08957095619526
:101300007F4F0895A1E21A2EAA1BBB1BFD010DC041
:10131000AA1FBB1FEE1FFF1FA217B307E407F507A5
:1013200020F0A21BB30BE40BF50B661F771F881F81
:10133000991F1A9469F760957095809590959B0117
:10134000AC01BD01CF010895EE0FFF1F881F8BBFB9
:101350000790F691E02D1994AA1BBB1B51E107C021
:10136000AA1FBB1FA617B70710F0A61BB70B881F35
:10137000991F5A95A9F780959095BC01CD010895C4
:10138000CF93DF938230910510F482E090E0E091FA
:101390006503F091660320E030E0C0E0D0E03097D4
:1013A00011F14081518148175907C0F0481759077A
:1013B00061F482819381209719F09B838A832BC0EB
:1013C000909366038093650326C02115310519F0BB
:1013D0004217530718F49A01BE01DF01EF010280A2
:1013E000F381E02DDCCF2115310509F1281B390BE4
:1013F0002430310590F412968D919C9113976115CC
:10140000710521F0FB019383828304C090936603EE
:1014100080936503FD01329644C0FD01E20FF31F86
:1014200081939193225031092D933C933AC020919E
:10143000630330916403232B41F420910202309125
:1014400003023093640320936303209100023091E0
:1014500001022115310541F42DB73EB74091040238
:1014600050910502241B350BE0916303F091640356
:10147000E217F307A0F42E1B3F0B2817390778F06B
:10148000AC014E5F5F4F2417350748F04E0F5F1FCA
:1014900050936403409363038193919302C0E0E00F
:1014A000F0E0CF01DF91CF9108950F931F93CF9379
:1014B000DF93009709F48CC0FC01329713821282EB
:1014C00000916503109166030115110581F42081D7
:1014D0003181820F931F2091630330916403281799
:1014E000390779F5F0936403E093630371C0D80181
:1014F00040E050E0AE17BF0750F412962D913C919A
:101500001397AD012115310509F1D901F3CF9D01E3
:10151000DA013383228360817181860F971F8217DE
:10152000930769F4EC0128813981260F371F2E5F5C
:101530003F4F318320838A819B8193838283452B14
:1015400029F4F0936603E093650342C01396FC937D
:10155000EE931297ED01499159919E01240F351F89
:10156000E217F30771F480819181840F951F029631
:1015700011969C938E938281938113969C938E9364
:101580001297E0E0F0E0D80112968D919C911397AC
:10159000009719F0F8018C01F6CF8D919C9198017C
:1015A0002E5F3F4F820F931F20916303309164039E
:1015B0002817390769F4309729F4109266031092BE
:1015C000650302C0138212821093640300936303C5
:1015D000DF91CF911F910F9108956F927F928F921B
:1015E0009F92AF92BF92CF92DF92EF92FF920F93B2
:1015F0001F93CF93DF93EC01009781F4CB01DF9130
:10160000CF911F910F91FF90EF90DF90CF90BF90FF
:10161000AF909F908F907F906F90B2CEFC01E60FBD
:10162000F71F9C0122503109E217F30708F4A8C004
:10163000D9010D911C91119706171707A8F00530D5
:10164000110508F49BC0C80104978617970708F492
:1016500095C002501109061B170B019311936D934E
:101660007C93CF0122DF8AC05B01A01AB10A4C0132
:10167000800E911EA0916503B091660340E050E09A
:10168000E12CF12C109709F44AC0A815B905D1F541
:101690006D907C901197630182E0C80ED11CCA1432
:1016A000DB0480F1A3014A195B096A0182E0C80EDC
:1016B000D11C1296BC9012971396AC91B5E0CB1644
:1016C000D10440F0B282A38351834083D9016D934A
:1016D0007C930AC00E5F1F4FC301800F911FF90159
:1016E00091838083EB2DFA2FE114F10431F0D701BF
:1016F0001396FC93EE93129741C0F0936603E09328
:1017000065033CC08D919C9111974817590708F4C7
:10171000AC017D0112960D90BC91A02DB3CF8091AC
:1017200063039091640388159905E1F44617570700
:10173000C8F48091000290910102009741F48DB7A6
:101740009EB74091040250910502841B950BE81747
:10175000F907B0F4F0936403E0936303F901718334
:1017600060830CC0CB010CDE7C01009749F0A8011E
:10177000BE011BD0CE0199DEC70104C0CE0102C05C
:1017800080E090E0DF91CF911F910F91FF90EF905B
:10179000DF90CF90BF90AF909F908F907F906F9091
:1017A000089581E090E0F89410C0FB01DC0102C0D4
:1017B00001900D9241505040D8F70895FB01DC0193
:1017C00001900D920020E1F7089511E0C7E2D1E009
:1017D00000E005C0802FFE01B7DD2196011DC83253
:0C17E000D10780E00807B1F7F894FFCFB4
:1017EC0000006703800000000000EB015901840138
:1017FC003102B5019301A701000000005B03590100
:10180C00FD035A03AF03C503420356656C6F63694E
:10181C00616464206D61726361646120706F722019
:10182C006C612061706C6963616369EFBFBD6E00B0
:04183C000D0A000091
:00000001FF
