:1000000014C1000043C1000041C100003FC1000015
:100010003DC100003BC1000039C1000037C10000F4
:1000200035C1000033C1000031C100002FC1000004
:100030002DC100002BC1000029C1000027C1000014
:1000400025C1000023C1000021C100001FC1000024
:100050001DC100001BC1000019C100000C943E0826
:1000600015C10000D5C70000AAC700000FC10000DD
:100070000DC100000BC1000009C1000007C1000054
:1000800005C1000003C1000001C10000FFC0000065
:10009000FDC00000FBC00000F9C00000F7C0000078
:1000A000F5C00000F3C00000F1C00000EFC0000088
:1000B000EDC00000EBC00000E9C00000E7C0000098
:1000C000E5C00000E3C00000E1C00000DFC00000A8
:1000D000DDC00000DBC00000D9C00000D7C00000B8
:1000E000D5C00000B602B902A802AC02B202F0020A
:1000F000BD02C102C702CB02CF02D502D902DD0286
:10010000F002E302E702EB020000210024002700D6
:100110002A002D0030003300010100000401070116
:100120000A0100002200250028002B002E003100CB
:10013000340002010000050108010B01000020004D
:100140002300260029002C002F00320000010000AF
:10015000030106010901050505050705080808084A
:10016000020202020A0A080804040404010101014F
:10017000010101010303030303030303040707074A
:100180000C0C0C0C0C0C0C0C0202020206060606EF
:10019000060606060B0B0B0B0B0B0B0B01021020BC
:1001A00020080810204010204080020102010804AD
:1001B0000201010204081020408080402010080441
:1001C000020180040201804020100804020108049A
:1001D00002010102040810204080010204081020DE
:1001E000408000000A0B02090C0D0E0807030401F1
:1001F00000000000000000000000000000000000FF
:1002000000000000000000000000000000001211CB
:1002100010000000000000000000000000000000CE
:100220000000000000000000880811241FBECFEF6E
:10023000D1E2DEBFCDBF00E00CBF12E0A0E0B2E033
:10024000E4E0F7E100E00BBF02C007900D92AE3E84
:10025000B107D9F724E0AEEEB2E001C01D92AD3295
:10026000B207E1F711E0C5E1D1E000E006C0219757
:100270000109802FFE010E94740BC431D10780E078
:100280000807A9F70E9467090C94800BB9CE96E085
:10029000899FD0011124AA55BC4F90967C936E93F0
:1002A0005F9791E091969C93919790911204E091C1
:1002B0001304F0911404992339F0309751F081110F
:1002C00008C08091C20304C0309719F05C968C91ED
:1002D00019940895CF92DF92EF92FF920F931F939C
:1002E000CF93DF936C017A018B01C0E0D0E0CE1593
:1002F000DF0589F0D8016D918D01D601ED91FC915A
:100300000190F081E02DC6011995892B11F47E0131
:1003100002C02196ECCFC701DF91CF911F910F91C1
:10032000FF90EF90DF90CF900895FC01538D448DA6
:10033000252F30E0842F90E0821B930B541710F090
:10034000CF96089501970895FC01918D828D98179D
:1003500061F0828DDF01A80FB11D5D968C91928DA9
:100360009F5F9F73928F90E008958FEF9FEF0895A6
:10037000FC01918D828D981731F0828DE80FF11D6F
:10038000858D90E008958FEF9FEF0895FC01918D8A
:10039000228D892F90E0805C9F4F821B91098F7383
:1003A0009927089587EF92E0F1DF21E0892B09F486
:1003B00020E0822F0895FC01848DDF01A80FB11D7C
:1003C000A35ABF4F2C91848D90E001968F7399278B
:1003D000848FA689B7892C93A089B1898C91806478
:1003E0008C93938D848D981306C00288F389E02D39
:1003F00080818F7D80830895EF92FF920F931F93EA
:10040000CF93DF93EC0181E0888F9B8D8C8D9813C7
:1004100005C0E889F989808185FD23C0F62E0B8D02
:1004200010E00F5F1F4F0F731127E02E8C8DE81225
:100430000BC00FB607FCFACFE889F989808185FFE8
:10044000F5CFCE01B8DFF2CF8B8DFE01E80FF11DA5
:10045000E35AFF4FF0820B8FEA89FB89808180622B
:1004600007C0EE89FF896083E889F989808180640B
:10047000808381E090E0DF91CF911F910F91FF90F9
:10048000EF900895CF93DF93EC01888D8823C1F01E
:10049000EA89FB89808185FD05C0A889B9898C918D
:1004A00086FD0EC00FB607FCF5CF808185FFF2CF29
:1004B000A889B9898C9185FFEDCFCE017CDFE8CF8B
:1004C000DF91CF91089580E090E0892B19F06ADFE9
:1004D000811125C080E090E0892B41F080E090E020
:1004E000892B21F00E94000081111CC080E090E067
:1004F000892B41F080E090E0892B21F00E940000E0
:10050000811113C080E090E0892BA1F080E090E0A1
:10051000892B81F00E94000081110AC008950E9479
:100520000000D8CF0E940000E1CF0E940000EACF77
:100530000C940000089590E0FC013197E231F10540
:1005400008F04EC08827EE58FF4F8F4F0C94740B65
:10055000809180008F7703C0809180008F7D809391
:100560008000089580918000877FF9CF84B58F77D0
:1005700002C084B58F7D84BD08958091B0008F77CF
:1005800003C08091B0008F7D8093B000089580916A
:1005900090008F7707C0809190008F7D03C080917D
:1005A0009000877F8093900008958091A0008F77BE
:1005B00007C08091A0008F7D03C08091A000877F3D
:1005C0008093A0000895809120018F7707C08091CB
:1005D00020018F7D03C080912001877F80932001BF
:1005E0000895CF93DF93282F30E0F901EE51FE4FAD
:1005F0008491F901E456FE4FD491F901EA5AFE4F75
:10060000C491CC2389F0811196DFEC2FF0E0EE0F3E
:10061000FF1FE45CFE4FA591B491EC91ED2381E0C6
:1006200090E021F480E002C080E090E0DF91CF9183
:100630000895862FD6CF1F93CF93DF93282F30E0D6
:10064000F901EE51FE4F8491F901E456FE4FD49129
:10065000F901EA5AFE4FC491CC23C1F0162F811143
:100660006ADFEC2FF0E0EE0FFF1FEE5DFE4FA5916D
:10067000B4918FB7F894111105C09C91ED2FE095BE
:10068000E92302C0EC91ED2BEC938FBFDF91CF916A
:100690001F910895862F642FCECFCF93DF9390E0E4
:1006A000FC01E456FE4F2491FC01EA5AFE4F84916E
:1006B000882361F190E0880F991FFC01E85FFE4FED
:1006C000C591D491FC01EE5DFE4FA591B4916111ED
:1006D00009C09FB7F8948881209582238883EC9184
:1006E0002E230BC0623061F49FB7F8943881822FBB
:1006F000809583238883EC912E2B2C939FBF06C07B
:100700008FB7F894E8812E2B28838FBFDF91CF918C
:100710000895862F642FC1CF3FB7F8948091F302DC
:100720009091F402A091F502B091F60226B5A89B33
:1007300005C02F3F19F00196A11DB11D3FBFBA2F73
:10074000A92F982F8827820F911DA11DB11DBC01D3
:10075000CD0142E0660F771F881F991F4A95D1F798
:1007600008958F929F92AF92BF92CF92DF92EF92B5
:10077000FF926B017C01D0DF4B015C01C114D104FD
:10078000E104F104E9F0C8DFDC01CB018819990923
:10079000AA09BB09883E9340A105B10578F321E081
:1007A000C21AD108E108F10888EE880E83E0981E8D
:1007B000A11CB11CC114D104E104F10421F7DECF66
:1007C000FF90EF90DF90CF90BF90AF909F908F9071
:1007D00008952FB7F8946091EF027091F002809124
:1007E000F1029091F2022FBF08950F931F93CF93C0
:1007F000DF93C82FD62F86E0C89FF0011124EA5559
:10080000FC4F11A2878D90A181309105E1F01CF47D
:10081000892B49F03FC08230910591F10397D1F5C2
:1008200060E070E031C06623A9F161E070E08C2FD8
:100830002EDDCFDF6093FE037093FF0380930004EF
:100840009093010427C0C5DF0091FE031091FF03C0
:100850002091000430910104AB01BC01401B510BFD
:10086000620B730B8091100490911104A0E0B0E032
:1008700084179507A607B70718F462E070E004C074
:10088000D11108C063E070E08C2FDF91CF911F91F0
:100890000F91FDCCDF91CF911F910F910895CF93D0
:1008A000DF93EC0160E08E81C6DE61E08E81C3DE05
:1008B00060E08E81C0DE8BE891E00197F1F7DF9177
:1008C000CF910895CF92DF92EF92FF920F931F93F3
:1008D000CF93DF937C016C0187E0C80ED11CC0E090
:1008E000D0E0062F10E0B8010C2E02C07595679578
:1008F0000A94E2F76170F60181916F019CDE219606
:10090000C430D10581F7C701DF91CF911F910F91BD
:10091000FF90EF90DF90CF90C2CFCF92DF92EF9217
:10092000FF920F931F93CF93DF93EC01F62E642F6A
:100930008C8181DE8D818F3F11F060E07CDE8F85C0
:100940000F2D10E084FF23C06E0187E0C80ED11C7C
:10095000E12CF12CB8010E2C02C0759567950A9414
:10096000E2F76170F60181916F0165DEFFEFEF1A2A
:10097000FF0A88E0E816F10469F7CE01DF91CF9114
:100980001F910F91FF90EF90DF90CF9088CFB8012B
:1009900084E0759567958A95E1F7CE0193DF6F2D19
:1009A000CE01DF91CF911F910F91FF90EF90DF90DB
:1009B000CF9088CF41E0B1DF81E090E0089540E042
:1009C000ACCFEF92FF920F931F93CF93DF93EC0185
:1009D000623018F08F8588608F876B8B1C8A80E46B
:1009E0008D8B80E18E8B80E58F8B61E08C8155DE75
:1009F0008D818F3F11F061E050DE61E08E814DDE30
:100A00007E0187E0E80EF11C00E010E08F8584FD98
:100A100003C084E090E002C088E090E00817190766
:100A200044F461E0F70181917F0137DE0F5F1F4FD2
:100A3000EDCF8BE39DE00197F1F760E08C81FBDD6A
:100A400060E08E81F8DD8D818F3F11F060E0F3DD95
:100A50006F8564FD19C063E0CE0134DF0BE416E45A
:100A6000C8010197F1F763E0CE012CDFC8010197BF
:100A7000F1F763E0CE0126DF83E592E00197F1F71D
:100A800062E0CE011FDF13C06062CE0198DF8BE40D
:100A900096E40197F1F76F856062CE0190DF83E500
:100AA00092E00197F1F76F856062CE0188DF6F8574
:100AB0006062CE0184DF84E0888B6CE0CE017FDF52
:100AC00061E0CE017CDF8BE39FE10197F1F782E0EB
:100AD000898B66E0CE01DF91CF911F910F91FF903E
:100AE000EF906DCFFC01443008F043E08389481754
:100AF00010F04FEF480FDF01A40FB11D54969C91E9
:100B0000690F6068CF015BCFCF93DF93EC01FB01EE
:100B1000828193819B838A8382E492E09983888394
:100B200084818C8385818D8386818E8388E037964E
:100B3000DE01179601900D928A95E1F7FB018785FA
:100B40008F878089888B8189898B82898A8B838929
:100B50008B8B84899589A689B7898C8B9D8BAE8B6D
:100B6000BF8BDF91CF910895089580E090E00895C4
:100B7000C3D56115710579F0FB0101900020E9F7FB
:100B80003197AF01461B570BDC01ED91FC910280C0
:100B9000F381E02D199480E090E00895EACFCF939F
:100BA000DF9320919603309197032530310574F43B
:100BB000EB01F901EC56FC4F818765E0620F41E0E3
:100BC000CE0190DF6AE472E0CE01E8DF8091960307
:100BD0009091970301969093970380939603DF91EA
:100BE000CF910895FF920F931F93CF93DF93CDB7CB
:100BF000DEB768970FB6F894DEBF0FBECDBFF82EF4
:100C00008B018091A4039091A5038230910529F076
:100C10008330910581F00197B1F480ED8F0D8A301A
:100C200090F4B801CE0101966FDFBE016F5F7F4F78
:100C30008F2DB5DF08C040E060E0C80153DF6CE4F1
:100C400072E0C801ABDF68960FB6F894DEBF0FBE46
:100C5000CDBFDF91CF911F910F91FF900895CF935A
:100C6000DF93EB01813489F03CF4833209F42FC126
:100C70008A3209F400C1A0C1833409F48BC00CF49A
:100C800074C0843409F4F7C097C18091A403909193
:100C9000A503019709F090C1209196033091970325
:100CA00040919403509195032417350789F01092D1
:100CB00097031092960380E090E020E38417950755
:100CC0000CF01BC1FC01EC56FC4F21870196F6CFBE
:100CD000C9018217930784F4FC01EC56FC4F51853F
:100CE0000197FC01EC56FC4F4581541791F310928B
:100CF00097031092960301C11092970310929603E6
:100D000041E060E0CE01EEDE6EED72E0CE0146DF46
:100D100040E060E0CE01E6DE6DE572E0CE013EDF50
:100D200041E060E0CE01DEDE68EE73E080E090E05E
:100D300018DD6EE672E0CE0131DF68EB7BE080E02B
:100D400090E00FDD40E060E0CE01CCDE6EED72E0C1
:100D5000CE0124DF41E060E0CE01C4DE6EED72E042
:100D6000CE011CDF83E090E0C3C010929703109285
:100D70009603209194033091950380E090E040E346
:100D8000821793070CF072C0FC01EC56FC4F4187B0
:100D90000196F6CF8091A4039091A503029709F0E4
:100DA0000BC1809196039091970320919403309109
:100DB00095032817390714F0009789F410929703C8
:100DC0001092960380E090E040E3821793070CF0C6
:100DD000C0C0FC01EC56FC4F41870196F6CF9093C2
:100DE00095038093940320E030E02817390744F4FA
:100DF000F901EC56FC4F418544832F5F3F4FF5CFFF
:100E0000109297031092960341E060E0CE016ADEF3
:100E10006EED72E0CE01C2DE40E060E0CE0162DE47
:100E20006DE572E0CE01BADE41E060E0CE015ADE4F
:100E300068EE73E080E090E094DC6FE772E0CE0152
:100E4000ADDE68EB7BE080E090E08BDC40E060E0D2
:100E5000CE0148DE6CED72E0CE01A0DE41E060E044
:100E6000CE0140DE6CED72E0CE0198DE1092A5035B
:100E70001092A403A1C08091A4039091A503892B93
:100E800009F09AC040E060E0CE012CDE60E972E03B
:100E9000CE0184DE41E060E0CE0124DE60ED77E04B
:100EA00080E090E05EDC61EA72E0CE0177DE60ED2A
:100EB00077E080E090E055DC41E060E0CE0112DEBA
:100EC0006CED72E0CE016ADE82E090E011C08091AC
:100ED000A4039091A503892B09F06EC040E060E067
:100EE000CE0100DE6AEA72E0CE0158DE81E090E0D9
:100EF0009093A5038093A4035FC040E060E0CE011F
:100F0000F1DD6EED72E0CE0149DE41E060E0CE0140
:100F1000E9DD6EED72E0CE0141DE40E060E0CE0141
:100F2000E1DD6AEB72E0CE0139DE68EB7BE080E068
:100F300090E017DC41E060E0CE01D4DD6EED72E0C0
:100F4000CE012CDE40E060E0CE01CCDD6AEA72E04A
:100F50002BC040E060E0CE01C5DD6EED72E0CE0159
:100F60001DDE41E060E0CE01BDDD6EED72E0CE0140
:100F700015DE40E060E0CE01B5DD6AEB72E0CE0147
:100F80000DDE68EB7BE080E090E0EBDB41E060E0D1
:100F9000CE01A8DD6EED72E0CE0100DE40E060E043
:100FA000CE01A0DD60E972E0CE01F8DD41E060E055
:100FB000CE01DF91CF9196CDDF91CF9108951F9211
:100FC0000F920FB60F9211240BB60F922F933F93EF
:100FD0004F935F936F937F938F939F93AF93BF9341
:100FE000EF93FF9387EF92E0E6D9FF91EF91BF91E6
:100FF000AF919F918F917F916F915F914F913F91B1
:101000002F910F900BBE0F900FBE0F901F90189551
:101010001F920F920FB60F9211240BB60F922F93BF
:101020008F939F93EF93FF93E0910703F091080351
:101030008081E0910D03F0910E0382FD12C090813A
:10104000809110038F5F8F7320911103821751F0ED
:10105000E0911003F0E0E950FD4F958F809310036D
:1010600001C08081FF91EF919F918F912F910F90FF
:101070000BBE0F900FBE0F901F9018951F920F92EE
:101080000FB60F9211242F933F938F939F93AF939B
:10109000BF938091EF029091F002A091F102B09184
:1010A000F2023091EE0223E0230F2D3720F4019657
:1010B000A11DB11D05C026E8230F0296A11DB11D7B
:1010C0002093EE028093EF029093F002A093F1023E
:1010D000B093F2028091F3029091F402A091F50294
:1010E000B091F6020196A11DB11D8093F302909379
:1010F000F402A093F502B093F602BF91AF919F91D5
:101100008F913F912F910F900FBE0F901F901895C8
:101110001092FA021092F90288EE93E0A0E0B0E09B
:101120008093FB029093FC02A093FD02B093FE0219
:1011300086E292E09093F8028093F70285EC90E0CB
:10114000909304038093030384EC90E09093060350
:101150008093050380EC90E090930803809307034D
:1011600081EC90E090930A038093090382EC90E075
:1011700090930C0380930B0386EC90E090930E0306
:1011800080930D031092100310921103109212031A
:1011900010921303109218041092170482E492E044
:1011A000909316048093150480E2809319048FEFC6
:1011B00080931A048EE180931B0486E180931C04C3
:1011C00088E180931D048AE180931E048CE1809362
:1011D0001F041092200410922104109222041092F5
:1011E00023041092240461E085E194E0EADB10928C
:1011F000A8031092AC031092AB031092AD0388E3E6
:1012000092E09093A7038093A60380E090E0FC0116
:10121000EA55FC4F148E10A2178E11A206968C333D
:101220009105A9F784E092E0909309048093080463
:1012300080E092E090930B0480930A0484E0809312
:101240000C0480930D0488E092E09093070480934F
:1012500006048AE090E090930F0480930E0484EFDC
:1012600091E0909311048093100410921404109252
:1012700013041092020410920304109204041092BA
:1012800005041092120485E090E0909395038093FA
:1012900094031092970310929603E8E1F2E0A8E914
:1012A000B3E001900D928A95E1F785E0EDE1F2E07F
:1012B000ADE9B3E001900D928A95E1F71092A30396
:1012C0001092A2031092A5031092A4030895CF9345
:1012D000DF93CDB7DEB768970FB6F894DEBF0FBEC9
:1012E000CDBF789484B5826084BD84B5816084BDAF
:1012F00085B5826085BD85B5816085BD80916E00B4
:10130000816080936E0010928100809181008260E4
:101310008093810080918100816080938100809121
:1013200080008160809380008091B1008460809310
:10133000B1008091B00081608093B00080919100F5
:1013400082608093910080919100816080939100F0
:10135000809190008160809390008091A1008260D4
:101360008093A1008091A10081608093A100809171
:10137000A00081608093A000809121018260809311
:1013800021018091210181608093210180912001C0
:1013900081608093200180917A00846080937A003C
:1013A00080917A00826080937A0080917A008160D7
:1013B00080937A0080917A00806880937A001092FE
:1013C000C100E0910703F091080382E08083E0917F
:1013D0000303F09104031082E0910503F0910603EA
:1013E0008FEC808310920F03E0910B03F0910C03BC
:1013F00086E08083E0910903F0910A038081806197
:101400008083E0910903F0910A03808188608083E2
:10141000E0910903F0910A03808180688083E09164
:101420000903F0910A0380818F7D808362E085E16A
:1014300094E0C7DA40E063E085E194E053DB69ECD7
:1014400072E085E194E095DB68ED72E085E194E07F
:1014500090DB41E061E085E194E044DB6BED72E01C
:1014600085E194E09BDB412C512C320143942224F2
:101470002A94322C81E080931204ABD900910204AB
:10148000109103042091040430910504AB01BC01C8
:10149000401B510B620B730B80910E0490910F0453
:1014A000A0E0B0E084179507A607B70708F017C1BA
:1014B00010E080910C04181758F4E0910804F091A2
:1014C0000904E10FF11D62E08081E7D81F5FF1CFD1
:1014D000912C80910D04981608F05DC0E92CF12C38
:1014E000E0910A04F0910B04EE0DFF1D61E0808194
:1014F000D4D8E0910A04F0910B04EE0DFF1D60E0DA
:10150000808199D8D301C201092C04C0880F991F8A
:10151000AA1FBB1F0A94D2F75C016C01C094D0943F
:10152000812C80910C04881608F5082D10E080911C
:10153000080490910904FC01E00FF11F808151D84B
:101540000C5F1F4F000F111FF801EA55FC4F892B4C
:1015500029F4808191818A299B2904C0808191810D
:101560008C219D21918380838394DBCFE0910A04B9
:10157000F0910B04EE0DFF1D61E080815CD880913D
:101580000A0490910B04FC01EE0DFF1D60E08081C8
:1015900084D893949ECFE2ECF3E083819481892BED
:1015A00021F41082328221821582369683E0EE3F4A
:1015B000F80799F7E12C96E0F92E80910C04E816D3
:1015C00008F052C0D12C0E2D10E0000F111F025553
:1015D0001C4F20910D04D21608F044C0F801608120
:1015E00071810D2C02C0769567950A94E2F76170BF
:1015F0007727E29E900111242D0D311DE091060404
:10160000F0910704E20FF31FA081E6EAF3E080E027
:10161000458D568D4217530711F461701AC08F5FC4
:1016200036968A30A9F7672BD9F0E2ECF3E080E038
:1016300090E0408141110FC0F89EF001F99EF00D3D
:101640001124EA55FC4FA48F368F258F10A2178ED8
:1016500061E0CBD805C0019636968A30910549F7EE
:10166000D394B7CFE394A9CF80E090E010E0FC01E1
:10167000EA55FC4F21A1211111E006968C3391050A
:10168000B1F7A7D860930204709303048093040415
:1016900090930504112319F18091C7038823F9F071
:1016A0008091C5039091C6030197C9F41091C203BC
:1016B0001123B9F065E174E0CE01019625DABE018F
:1016C0006F5F7F4F812FCBDA65E174E0CE01019629
:1016D0001BDABE016F5F7F4F812F84DA02C0109248
:1016E00012040E946302C6CEEE0FFF1F881F8BBF3D
:1016F0000790F691E02D199481E090E0F89400C0F5
:04170000F894FFCF8B
:101704002F31333527292B2D3132334134353642AD
:10171400373839432A30234431323334353030308A
:10172400303000000000FC016A0195014202C6014C
:10173400A401B8010000000089034A031903000052
:101744000000DA046A01B505B4052A00202020450A
:101754004E43454E4449444F20202020002020433E
:101764004F52524543544F20202020202000202057
:1017740044495649455254415345202020200043B2
:101784004F4E54524153454E49412043414D42002E
:1017940043414D42494F20434F4E542E203A20207E
:1017A40000494E474552534152002020434F4E5466
:1017B400524153454E49412020002020494E434F79
:1017C40052524543544F2020004249454E56454EFF
:1017D40049444F20202020000D0A002020202020F2
:0E17E400202020202020202020202020000077
:00000001FF
